:020000040020DA
:10000000582E00208D022000D7A72000D5A7200061
:10001000D5A72000D5A72000D5A72000000000000C
:10002000000000000000000000000000D5A7200034
:10003000D5A7200000000000D5A7200035A820008B
:1000400057A820005DA8200063A8200069A8200010
:10005000000000003BA8200041A82000D5A72000F8
:10006000D5A72000000000000000000000000000F4
:100070000000000000000000D5A7200000000000E4
:100080000000000000000000D5A72000D5A7200038
:10009000D5A72000D5A72000D5A72000D5A72000F0
:1000A000D5A72000D5A72000D5A72000D5A72000E0
:1000B000D5A72000D5A72000D5A72000D5A72000D0
:1000C000D5A72000D5A72000D5A72000D5A72000C0
:1000D000D5A7200000000000000000000000000084
:1000E0000000000000000000000000000000000010
:1000F0000000000000000000191B2000291B200048
:1001000000000000000000000000000000000000EF
:1001100000000000000000000000000000000000DF
:1001200000000000000000000000000000000000CF
:1001300000000000000000000000000000000000BF
:1001400000000000000000000000000000000000AF
:10015000000000000000000000000000000000009F
:10016000000000000000000000000000000000008F
:10017000000000000000000000000000000000007F
:10018000000000000000000000000000000000006F
:10019000000000000000000000000000000000005F
:1001A000000000000000000000000000000000004F
:1001B000000000000000000000000000000000003F
:1001C000000000000000000000000000000000002F
:1001D000000000000000000000000000000000001F
:1001E000000000000000000000000000000000000F
:1001F00000000000000000000000000000000000FF
:1002000000000000000000000000000000000000EE
:1002100000000000000000000000000000000000DE
:1002200000000000000000000000000000000000CE
:1002300000000000000000000000000000000000BE
:1002400000000000000000000000000000000000AE
:10025000000000000000000000000000000000009E
:10026000000000000000000000000000000000008E
:10027000D5A720000D1A2000251A20009913200070
:10028000D5A72000210F2000D5A72000FF22482459
:1002900008B5084B08481A60084AE369121A084969
:1002A00098470848084AA369121A0021984700F0A5
:1002B00055FCFEE7B4200D40400000202C02002039
:1002C000CCC42000300200205526002010B5038841
:1002D00004462BB1682B09D000230380032010BDF6
:1002E00000F030FC68232380012010BD034B1B78F5
:1002F0008B42F9D1104600F0BFFBF3E749260020FE
:100300002DE9F047002581462E461F4CDFF88480FA
:10031000DFF884A009EB060219F80630577807EBDE
:100320000327BFB2A7B9002D14DB05D00135023673
:10033000102EEFD1BDE8F0872068144AC0F5807117
:1003400040440AF0DDFA2368012518442060EEE7F6
:10035000002D16DC4EB120680D4AC0F58071404476
:100360000AF0CEFA23681844206020683B46C0F5A6
:100370008071524640440AF0C3FA23681844206052
:10038000D5E74FF0FF35F0E740020020B7C020006E
:10039000B8C02000DC160020BAC02000F8B5838D5C
:1003A0000446DE2B52D013D8A62B07D0D82B00F052
:1003B0009C80002B40F08580A623838533226949E9
:1003C00004F12C0005F0EEFC012820D80020F8BD37
:1003D00040F2531293425ED0B3F5AA7F69D040F247
:1003E000051293426DD160480AF044F95E49024615
:1003F00004F12C0005F0D6FC0128E7D900225B4D62
:100400005B4B28681A600AF0EAFB286030E0594923
:1004100055480AF0D1F80E22554B1A60564B186811
:1004200007F0EAFB554B1860544B514D18684E4E7F
:1004300000284AD12868524AC0F5807130440AF039
:100440005FFA2B681844DE232860A38546480AF02B
:1004500011F94549024604F12C0005F0A3FC0128DE
:10046000B4D90022424B1A6003F0C6F83F4B186023
:100470003E4E3F4D30683C4F00284DD12868414AE0
:10048000C0F5807138440AF03BFA2B68184440F2FA
:1004900053132860A38534480AF0ECF83249024629
:1004A00004F12C0005F07EFC01288FD94FF4AA73CB
:1004B000A3850F22344904F12C0005F073FC0128B8
:1004C00084D90023A3850320F8BDFFF719FF28680E
:1004D0002E4AC0F5807130440AF012FA2B68184495
:1004E000D328286010D9D823A3851F480AF0C2F862
:1004F0001D49024604F12C0005F054FC01287FF64A
:1005000065AF00221A4B1A601C4D1B4B29681868F6
:100510000BF043FA286087E70830FFF7F1FE286800
:100520003368C0F580711A4A93F8243038440AF0D1
:10053000E7F92B6818442860306803F04FF8FFF79C
:10054000DFFE28683368C0F580719B69114A384422
:100550000AF0D6F92B68184440F205132860A385E9
:1005600041E700BF38C02000DC1600205802002000
:10057000400200206CC020000C010020540200202A
:100580007BC02000A0C02000A7C020008CC020009D
:100590008EC0200098C02000004870479D032000B6
:1005A0003F22074B10B51A7050225A700223054C97
:1005B000238001F001FD0023034A2380137010BD46
:1005C000C4200020B0200020A119002070B50488AC
:1005D0000546B4F5D07F34D004D8C4B100232B80B5
:1005E000032070BD40F2B1139C4257D0B4F5DF7FB9
:1005F000F4D12D4B1B788B424DD12C4B9A424AD1D2
:100600002B480AF04DF91E200AF063FD43E0294B08
:1006100020461C70284B5B699847284B2246186877
:10062000852102F077FB4FF4D0732B80012070BD41
:10063000802123480AF07CF9FFF7B2FF40F2B113A2
:10064000F3E78529F2D1194B012181209B68984756
:100650001C480AF025F9174B1B78002BE8D0164BE5
:1006600001205B69984718480AF01AF9174C04F101
:10067000600614F8023C5BB1237C012B08D82020D3
:1006800001F00CFB204605F01DFE0A2001F006FBE0
:100690002034A642EDD14FF4DF73C6E708480AF0D4
:1006A00062F90028D7D1C1E748260020B4BE200057
:1006B000EEC02000DC170020DCBF200098050020E1
:1006C00044020020BDC02000D7C020005E1F0020D3
:1006D000034630B5164A85B000F1100553F8041BE7
:1006E000AB4242F8041BF9D103466C462246186817
:1006F0005968083303C2AB421446F7D101240D4BAD
:100700000D4968461C700AF046FA002122466846E8
:1007100002F092FD69461E2005F036FF30B14022FE
:1007200003490AF028FB05480AF0BAF805B030BDC5
:10073000E0120020DC170020BC20002007C12000B0
:1007400008B54FF4E13001F003FB0448002102F04A
:1007500009FBBDE80840024801F028BC7C000020ED
:10076000650720007FB52F4C23782546212B2FD1FC
:1007700061782D4801F0A2FC00212C4B19802C4BF4
:1007800019706378502B14D11022684609F0C6FE08
:100790006B4654F8020F616803C3264801F08EFCD3
:1007A000684605F08FFD0A2001F078FA6846FFF7E9
:1007B0008FFF214C214A04F11005234603CBAB42A5
:1007C000106051601C4602F10802F6D104B070BD01
:1007D0003F2BEED161781A4801F070FC63784D2B05
:1007E00019D1212323700023164E174901339A197A
:1007F00012F8012C05EB4300140902F00F02645CAF
:10080000525C082B05F813404270EFD11222074BBF
:100810001A8001F0D1FB0023044A1380044A1370AC
:10082000C7E700BFC420002078C12000B02000200E
:10083000A11900209EC12000CC200020F012002031
:10084000AEC12000BC200020CEC1200008B510227F
:100850000C490D4809F058FD80B90C4801F02EFCF8
:10086000084805F02FFD0A4801F028FC094805F06A
:1008700029FD0A2001F012FA002008BD01F09CFBBE
:10088000FAE700BFCC200020F01200203EC120007B
:1008900072C12000DC20002038B5038904469E2B5D
:1008A00013D004D87BB100232381032038BDA32BB0
:1008B00024D0BA2BF7D10A2104F1080005F0D0FAB0
:1008C000012832D808E09E230381202104F108008A
:1008D00005F0C6FA012801D8002038BD04221C49C1
:1008E00004F1520009F0F4FE30B11022194B02203D
:1008F0001A700023238138BDA323238104F1080546
:100900002021284605F0ACFA0128E5D994F85230A8
:100910002F2BEAD194F85330202B09D10E4B1B8892
:10092000A4F86C30012384F87430BA232381C2E721
:1009300028460AF08DF90023204480F85130022225
:1009400004F1520104F16C0009F012FFEAE700BF64
:1009500063C22000502100201BC3200038B5838DC6
:100960000446632B0D4604D0762B11D0C3B9632304
:100970008385284609F07EFE2946024604F12C00B4
:1009800005F010FA012801D8002038BD7623A38590
:100990001B22054904F12C0005F004FA0128F3D9C3
:1009A0000023A385032038BD47C2200010B5B0F84E
:1009B00050300446882B2FD007D8ABB1862B20D0DF
:1009C0000023A4F85030032010BD8E2B3FD08F2B76
:1009D000F6D1236F20469847012818D9002310220A
:1009E0002367204B1A70EBE703676D30FFF7D4FDE8
:1009F000206748BB1C4B1B88A4F86C308623A4F8E6
:100A000050301A492046FFF7A9FF012801D80020DD
:100A100010BD8823A4F85030A38D53B1562B0AD0B3
:100A2000002310210F4AA3851170A4F85030022032
:100A300010BD5623A38558220D4904F12C0005F062
:100A4000B1F90128ECD8E2E78E23A4F85030094927
:100A50002046FFF783FF0128D9D98F23A4F850300F
:100A6000B7E700BF50210020DFC12000BEC2200038
:100A7000EEC1200068C220002DE9F0412E4D044651
:100A80002B78A84613F0300601D11A0609D5002CA0
:100A900050D0002323672146BDE8F041274809F0E4
:100AA000F6BF13F0400732D0244809F0DCFF0446BB
:100AB00020B9202388F80030BDE8F081204B0146A2
:100AC00004F15205186805F04BFA1922294604F181
:100AD00008000AF0C2F8294604F12C0019220AF095
:100AE000BCF8A4F85060266784F874604FF4A061E5
:100AF000204609F048FF2046FFF7CEFE94F87430F8
:100B0000012B17D12046BDE8F041FFF74FBF002869
:100B1000CFD01B070BD509F048FF0028EBD02023CE
:100B20002767214605482B7009F0B1FFE3E709F07C
:100B300036FFE0E7BDE8F081502100206000002092
:100B40006021002008B54FF4A04005F0F3F9BDE89E
:100B50000840014809F077BF60000020F7B500F0B9
:100B600029FB00F0F7FB00F06DFB00F03BF901F012
:100B700083F809F006FF00F0E5FB08F003F9022016
:100B800009F02CFE02F060F800F000FB002000F0FD
:100B900021FA4349002000F0E3FA02F09BF909F042
:100BA00052FE042009F01AFE3E4809F079FE3E4844
:100BB00009F076FE3D4801F081FA3D4B3D4C186846
:100BC00009F06EFE3C4801F079FA3C4B00251868AC
:100BD00009F066FE3A4801F071FA3A4B3A4F18684C
:100BE00009F05EFE002002F023FA00F02FFF002142
:100BF000364802F0B7F801F05FFE0821684601F0C0
:100C00006DF89DF806309DF8076046EA03266B46AE
:100C100003CB20602E48616001F050FA615D3846D8
:100C2000013501F04BFA072DF8D12A4FE1792A4816
:100C300001F044FAFD6A4AF6CD310220A847314658
:100C40000320A84719210120A84769467B6B082289
:100C50000B20984707F0AEF9204A236813606368B9
:100C6000536006F0D3FE00211D4802F07BF80021FE
:100C70001C4802F077F809F05AFE082009F0AEFD92
:100C8000194809F04AFE00F087FA00F08BFA01F0EB
:100C9000F3FF10F0FF0FF8D100F07EFFF5E700BF83
:100CA0008D2E200027C3200041C3200053C3200005
:100CB000C4BF20004B26002061C32000DCBF200001
:100CC0006FC32000F8BF20009CC32000A4000020B8
:100CD0007DC320001CBF2000A2C32000BC20002038
:100CE0002C010020C4000020A0BE200038B505461D
:100CF00008480C4609F059FE58B11021054809F082
:100D000042FE35B9052C04D1BDE83840024802F056
:100D10005FB938BD4C030020B4BE200008B50021E7
:100D20001A4809F030FE1A4A0521136823F02003FF
:100D3000136052F8203C23F0200342F8203C52F884
:100D40001C3C23F0200342F81C3C52F8183C23F0D2
:100D5000200342F8183C52F8143C43F0200342F8B8
:100D6000143C52F8103C43F0200342F8103C00229F
:100D7000104600F0FDFA002000F03AFA05220021AA
:100D8000044800F097FA012008BD00BF4C03002082
:100D900020940D40ED0C2000F8B500F083F80F4BC7
:100DA0000024D3E900673A46B04238BF7A1C1546A2
:100DB0000443C3E900450A49D1E90023921B63EBD0
:100DC000070312196B41C1E9002301F09DFE18B120
:100DD000BDE8F84001F01CBEF8BD00BF380200209D
:100DE000300200200F4B104A1A6053F8042C42F0D6
:100DF000050243F8042C53F8042C42F0020243F895
:100E0000042C0A4A136843F0010313600022084BC4
:100E10001A60042243F80C2C012243F8082C1F22EC
:100E2000DA62704714E000E08FD0030008200D4024
:100E30000C000340034BD3E90023100A40EA03608F
:100E4000704700BF38020020034BD3E90023D00BCA
:100E500040EA4340704700BF30020020054B186055
:100E60001C3B1A6842F001021A601A68D207FCD4CF
:100E7000704700BF2800034010B5064C236823F0DC
:100E800001032360FFF788FF236843F00103236019
:100E900010BD00BF10E000E0014B1868704700BFB4
:100EA00054030020064B18685A6808331B681B045B
:100EB00043EA0223034A0343106843EA0060704791
:100EC00040500D404C500D4010B50446114A136877
:100ED000DB07FCD509F0BBFCFFF7E4FF231A062B68
:100EE000D8BFC41D0C4B220E1A60C4F3074243F84E
:100EF000042CC4F3072243F8082CE2B243F80C2C6C
:100F000009F0A1FC054B91201C60BDE8104000F0E9
:100F10006FB900BF50500D404C500D40540300209D
:100F200008B500F021FE0022054B91201A6000F068
:100F30007BF9912000F06AF9BDE8084001F048BF54
:100F40005403002010B5094B094903F158020C68FD
:100F50001868044204D0D868806910F0800003D07B
:100F60002C339342F3D3012010BD00BFC4BE200038
:100F700028200D402C23154A70B503FB00234FF6A3
:100F8000BF72DC680546236C626413F050021BD10B
:100F900013F4D06F0BD04FF440732363FF236360CF
:100FA000E36AE262E362236B43F00103236370BDF3
:100FB00056F8253033B12068C0B29847A369DB06E4
:100FC000F6D570BD2368F9E7014EF7E7C4BE2000EF
:100FD0005803002001282DE9F74F064600F2B080A3
:100FE0002C254543584F7C1994F92080B8F1000F07
:100FF000C0F2A68094F92290B9F1000FC0F2A0804F
:10100000524800F029FE524A79591368E5680B43AB
:1010100013605368616894F921A00B43536093688F
:10102000A1685FFA89FB0B4393600023C5F8C83FB2
:1010300023690AEBC8021A6094F92330227D0093D9
:101040009DF8003058461946019300F09BF9019B2A
:1010500008221946584600F08BF901233D494FEA12
:101060000939009A59F8010003FA02F2024349F8DB
:1010700001204FEA083858F8010003FA0AF2024347
:1010800048F801205022AA63AA6B94F9240042F484
:10109000D062AA6302226A634FF440722A63A26993
:1010A00000286A62E269AA624FF07002EA620D46A5
:1010B00014DB94F92510284A41EAC00414600203A5
:1010C00054598B4023435351C9B20022C0B200F09F
:1010D0004FF9224A136843F4004313602C2303FBA7
:1010E000067393F92640002C1BDB93F927A05FFAC7
:1010F00084F85FFA8AF901224946404600F042F935
:1011000001232403625903FA0AF3134363510822AB
:101110004946404600F02CF9104A136843F48043D6
:1011200013602C2303FB0676F26896F82800136BF5
:1011300043F00103136303B0BDE8F04F00F058B86B
:1011400003B0BDE8F08F00BFC4BE2000450F2000F3
:1011500028200D4020940D4004410D4030D0004027
:1011600001289CBF014B43F8201070475803002012
:10117000012808D82C22044B02FB0030C3689A696E
:101180009206FCD419607047C4BE20000022014BB7
:101190001A60704700500D400822014B1A607047DA
:1011A00000500D40A022024B1A6050221A60704776
:1011B00000500D40084A094B1A60094B80321A60F2
:1011C000084B80321A60084B80321A604FF40012CC
:1011D000064B1A60704700BF00E100E06403002086
:1011E00060030020680300206C03002008ED00E08D
:1011F000054B41091A68012300F01F0003FA00F0B3
:1012000042F82100704700BF64030020054B4109EC
:101210001A68012300F01F0003FA00F042F82100D1
:10122000704700BF60030020054B41091A68012385
:1012300000F01F0003FA00F042F82100704700BFE1
:101240006C03002038B5164D164C2B68012223F094
:1012500040032B602368062123F040032360032012
:1012600000F086F82B68012223F080032B602368AE
:10127000072123F080032360032000F079F84FF466
:101280000032094B09491A60094A1346106808429E
:10129000FCD11A685101FCD41A685201FCD538BD42
:1012A00020C40D4000C40D4000200D40000001018D
:1012B00004200D40024B02EBC10243F822007047AC
:1012C00070030020F8B507460E460024084D05EBD4
:1012D000411547FA04F3DB07E1B204D555F8243091
:1012E0000BB1304698470134082CF2D1F8BD00BF4D
:1012F000700300202DE9F04780464FEA0837DFF8F9
:10130000409007F1804505F5592500F02DFCD5F8F2
:10131000186457F809404FEAC80A24FA0AF446EA62
:101320000400E4B24146C0B2F6B204FA0AF4FFF790
:10133000C9FFC5F81C6447F80940BDE8F08700BF45
:1013400018970D4080220021014809F0E7B800BF3E
:1013500070030020034A044B1A60044B803A1A6061
:10136000704700BF80400D40F0030020F4030020D0
:10137000034B01EBC0011B6843F82120704700BFFD
:10138000F0030020034B01EBC0011B6843F8212050
:10139000704700BFF403002010B58F20064CFFF704
:1013A00043FF8F20FFF732FF206818B101F0F2FCF5
:1013B0000023236010BD00BFF8030020084B93F901
:1013C0000020002A09DBED21064A11601160E321AB
:1013D00011601A7862F07F021A700120704700BF16
:1013E000DF17002038880840094A13689B07FCD49F
:1013F000ED22084B1A601A60074A12680AB1EF2200
:101400001A60064A0120137803F07F0313707047B7
:101410004C860840388808402C860840DF1700209A
:10142000A0F10B01CBB20F2B10B5044613D80B4B18
:101430001B6813F03F0302D0FFF7D6FF012301EB37
:101440008101074A0B3111600BB1FFF7B7FF054B64
:1014500060B21C7010BD4FF0FF3010BD48860840D0
:101460003C8608402A02002008B50B4B1B689906F1
:101470000FD1FFF7A3FF012308490A68D207FCD563
:10148000074A1168C1F300110BB1FFF7ADFF084621
:1014900008BD0023F0E700BF488608406486084086
:1014A0004C860840044B186800F02200A0F120038D
:1014B00058425841704700BF4C860840024B18689C
:1014C00000F04000704700BF4C86084010B50C4645
:1014D00000296BD010286BD8DFE800F009101B2220
:1014E000246A34474C6A6A6A6A6264446600314B13
:1014F0001B68003318BF0123236021E005222E4B17
:101500001B6803F07F030B3B93FBF2F30B33DBB25F
:10151000F2E72A4B1A68043B1B6843EA0223EBE715
:10152000274BF7E70021274B21601A6802F00102E0
:101530002260586A10F020003BD042F00202226084
:10154000002010BD204B21491A680023D2B201EBC4
:10155000C3000079904202D851F83330CCE7013310
:101560000E2BF4D16FF01703C6E7194B1B685BB263
:10157000493BC1E7174B1B6899060FD1FFF71EFFC8
:10158000012315490A68D207FCD5144A1168493964
:1015900049B20BB1FFF728FF2160D1E70023F0E744
:1015A0000B23A9E71A23A7E70723A5E7022010BD0D
:1015B000012010BD2C8608403C860840CC850840A0
:1015C000D4850840008608404086084054BF20006B
:1015D000588608404886084064860840608608406F
:1015E00038B505460C46134A13689B07FCD4124BCA
:1015F00093F90030002B01DBFFF7E0FEEE220F4BEA
:10160000691E1A601A60A21C43F8102C21440220A3
:1016100000F034FA0A49013C41EA0411022000F0CA
:101620003FFA022000F046FA022000F05BFA0020A8
:1016300038BD00BF4C860840DF17002038880840BE
:1016400002C001C0F8B51F4B93F90030002B2BDB13
:10165000FFF728FC0446FFF7B1FEC4F57F44F634DB
:10166000FFF720FC20440004FAD40126FFF7FCFE1B
:1016700028B3154C2368990621D4E9230427134D78
:101680002B6023689A0703D4013F17F0FF070DD1A1
:1016900023689B070ED4EE2301212B602B600EB133
:1016A000FFF7A2FE0846F8BD0026DFE70620FFF799
:1016B000D5FBE6E7216811F00201FBD1EFE702213B
:1016C000F0E700BFDF1700204C860840388808404C
:1016D00010B5072858D8DFE800F0040F1A21255765
:1016E0003F52012903D1FFF769FE002010BD0029F8
:1016F0004CD1FFF779FEF8E7A1F10B030F2B45D88A
:10170000C8B2FFF78DFE0130EFD1032010BD88B2C3
:101710001F4BC2B2000A1A605860E6E788B2C2B234
:101720001C4BF7E731F0030330D11B4B11F0010FD5
:101730001A6814BF42F0010222F001021A60174B2E
:1017400011F002001A6803D042F020021A60CCE7C0
:1017500022F020021A6010BD01F118031F2B15D8CA
:101760000D230F4A52F83340D800A14203DC024453
:1017700012790C4BEAE713F1FF33F3D2B5E7C9B2A4
:10178000094B49311960B0E7012010BD022010BD9E
:10179000C8850840D0850840008608402486084057
:1017A00054BF200040860840588608400B280DD1C1
:1017B000082A0DD161B1074B074A013953F8040DCE
:1017C000934201F8010FF9D10020704701207047C2
:1017D00002207047C8850840A88508400B280DD115
:1017E000082A0DD161B1074B074A083111F8010DE4
:1017F00043F8040F9342F9D100207047012070474D
:1018000002207047A4850840C485084070B52B4E5F
:10181000336813F0400308D0294D2B68DCB21B0657
:1018200005D5ED22274B1A601A60002070BD042CEC
:10183000F7D9023C8C42F4DCE4B2032C2AD0011923
:101840000139032000F022F91F4B611E43EA011108
:10185000032000F025F9032000F02CF9032000F00C
:1018600041F9032000F04AF90028FAD129682D68CF
:101870002806D6D5493949B289B2042006F070FB52
:1018800005F07F01032006F06BFB33685A0608D48D
:10189000204670BD2B6803702B6843702B688370E3
:1018A000E4E733681B0603D5084801F073FAEFE755
:1018B000ED22044B1A601A60EAE700BF4C8608402C
:1018C000288808403888084002C0010C6C000020BD
:1018D000F8B52B4E357815F001054ED10124F822CC
:1018E000284B7F271C605C609C60A3F59323A3F5C5
:1018F00014731A600922C3F89021152270331A60FC
:101900000B2203F59B2303F59E731A604022A3F577
:101910009B23A3F5F0731A601A6842F020021A6044
:10192000D52243F81C5CDF62DA61174B1878FFF7A9
:1019300077FD164A8D20136843F004031360FFF708
:1019400057FC134B8E201F60FFF752FC022000F063
:10195000BDF81049022000F099F8032000F0B6F815
:101960000C49032000F08AF829460B4801F0FAF9E7
:101970003378204623433370F8BD0020F8BD00BF04
:10198000DF170020A8200D402A0200208C86084086
:1019900094860840288808406C00002038B50388E9
:1019A000044643B340F2B932934203D0002303808C
:1019B000032038BD822921D106F078FA06F00CFA0E
:1019C0008021FFF723FF002805DD80B206F0E8F94B
:1019D0000B4B1B6998470B4B1A7852060BD500220C
:1019E0001A70094B1D68FFF7FFFCFFF771FFAB068C
:1019F00001D0FFF7E3FC40F2B9332380012038BD6A
:101A0000F8BF2000DF1700204886084008B50348CB
:101A100001F0C0F90022024B1A6008BD6C000020E2
:101A200034880840064B07481A68042A1FBF064935
:101A30000A7842F040020A7000221A6001F0AAB946
:101A40002C8808406C000020DF17002010B5094CDE
:101A500040220021204608F061FD0122064B2E2085
:101A60001A605C60FFF7C4FBBDE810402F20FFF751
:101A7000BFBB00BF0000002004F00F4003289EBF42
:101A8000014B0001195070470000002003289EBF41
:101A9000024B03EB00104160704700BF00000020C4
:101AA00003289EBF024B03EB00108160704700BF0C
:101AB00000000020032806D80123034A03FA00F09F
:101AC000116808431060704728F00F40032806D8BB
:101AD0000123034A03FA00F01168084310607047BD
:101AE00020F00F40032806D80123034A03FA00F030
:101AF000116808431060704714F00F4003289FBF1F
:101B0000044B03EB0010806800F0070088BF002042
:101B1000704700BF000000204FF0FF32014B1A60F9
:101B2000704700BF04F50F400122014B1A60704757
:101B30004CF00F40094B19461A68D002FCD4084BF0
:101B40001A6822F480321A600A68D203FCD4196839
:101B5000044A0A4042F400321A60704704200D40E3
:101B600000200D40F8F8FDFF10B5094C22689007E1
:101B70000DD0084B1A4619684901FCD413685B0163
:101B8000FCD5FFF779F9FFF7D5FF0023236010BDDF
:101B900058200D4004200D4038B5284B1C6814F027
:101BA0003F0414D1264D55F8243023B1984770B125
:101BB0000134032CF7D1234D2B7843B1FFF76CF997
:101BC0000446FFF76FF9201A092800D90CB930BF75
:101BD00038BD1D4A1D4B11680B4043F4807343F020
:101BE000010313601A4B19461868C002FCD413682D
:101BF00043F4803313600B68DB03FCD5FFF752F925
:101C0000201A092803D8BDE83840FFF793BF63289E
:101C1000104C0BD92B78022B08D1236001F070F8FF
:101C200030B1FFF787FF0023236038BD0123F4E7BD
:101C3000FFF732F90028CAD1F3E700BF4886084011
:101C4000FC030020E017002000200D40FEFEFDFFF9
:101C500004200D4058200D400023064A52F823105E
:101C6000814206D011B942F8230070470133032B9B
:101C7000F4D17047FC0300200022054B1A60054A8E
:101C8000136843F0040313600122034B1A7070477A
:101C900058200D4010ED00E0E017002070B50E4C0C
:101CA000054626784EB9C0213046FFF761FA0D216E
:101CB0003046FFF75DFA01232370E9B20020FFF7F9
:101CC00057FA0A2D05D1C0210020FFF751FA002351
:101CD0002370284670BD00BFE117002030B5184BB7
:101CE0001A78431E1AB9174A1278122A06D001F53B
:101CF0002011154A273191421CD130BD134A127868
:101D00004B2AF4D14A0802F12814B4F1281F07D154
:101D1000002301F5201127311044934205DB30BD2B
:101D200014F8015D03F8015FEFE711F80149C454AD
:101D30000133F2E711F8010903F8010FDBE700BFF7
:101D40002B0028002A00280027002800290028004E
:101D500001490020FFF704BA152020002DE9F74FB4
:101D6000038882463BB1B3F5A57F00F0BC80002319
:101D7000038003200DE0814A1380814A1380814A49
:101D800013800122804B1A704FF4A573AAF800301B
:101D9000012003B0BDE8F08F3288944200F0E1806A
:101DA00032D300234FF0C00C1D464FF0DB087748BC
:101DB00039199B2C02D88C2D53D9002500214FF0C6
:101DC000C00E4FF0DB0C71488CB2944239D28C2D8E
:101DD00036D8002B68D07B5CDD2B60D105F800C0C5
:101DE0000135ADB2002365E0A1B113F8011FDD2973
:101DF00005D105F800C00135ADB200211AE0DC299B
:101E0000FBD105F800E0F6E700254FF0C00E4FF0DB
:101E1000DB0C5E483B5DDB2B16BF002101212B5400
:101E200004F101039BB218BF013503F1FF3318BF62
:101E3000ADB23B440134A4B2A24202D98C2DD3D915
:101E40000025013292B29C2A04BF002333804C4B00
:101E500018BF3280328819888A4242D1A9F80020FE
:101E600080E06BB10B78DD2B05D105F800800135E2
:101E7000ADB200230DE0DC2BFBD105F800C0F6E786
:101E800091F800E0BEF1DB0F07D005F800E0013566
:101E9000ADB20134A4B201318BE70123F9E7DC2BA9
:101EA000A0D105F800E09BE77C5CDB2C04D02C542F
:101EB0000135ADB2013187E70123FBE701339BB266
:101EC0009C2B4FF0000000D103469942C6D0F85C2D
:101ED000C028F3D12E483380A9F8002000F05AFF23
:101EE00040E01046F0E782294FF001057FF450AF43
:101EF000DFF890B0274BDFF8B080BBF800401D70D2
:101F000018F804301D4E432BD94647467FF444AFA2
:101F10001B4B1B889C42BFF43FAF1B1B052B7FF75D
:101F20003BAF08EB0403062218461B49019308F057
:101F3000EBF9019B024600287FF42EAF48F804001D
:101F400098800F4B154C18800F4B3080ABF8000079
:101F50001D70A05C019208F0B3FC019A01320D2AB9
:101F6000F7D100250E4B1D80002D3FF40DAF0D4B1A
:101F70001B6803B1984704F00FF805E7041300202D
:101F800002130020001300207E180020C42000202F
:101F90007C00002046260020C0C32000C7C32000CC
:101FA000B020002008040020E2170020014B186038
:101FB000704700BF08040020F8B50024C02008F0D6
:101FC0007FFC114D114B124E2988A2B2914204D8C8
:101FD000C02008F075FC0020F8BD3C2A08BF33681B
:101FE00018785F1CC02808D1DB2008F069FCDC20D1
:101FF00008F066FC01343B46E6E7DB28F8D108F040
:102000005FFCDD20F4E700BFB0200020C4200020EA
:102010005C21002038B5234B1A781C46022A07D0D1
:10202000032A25D1C02804BF01221A70002038BD20
:1020300000F12402D2B2012A06D903221A701A4BE7
:102040001A881A4B1A80F1E701232370174B1A885C
:10205000511C89B29C2908BF0021198014491D8890
:1020600009888D4208D1032222700F4A1288E9E7BD
:10207000DB28EBD10223E8E70E4C5428A05407D10B
:10208000635C432BD2D10C4800F084FE012038BDA4
:10209000C028CBD104480488A242D3D0A142F2D1B7
:1020A0000280F0E77E1800200413002002130020B5
:1020B00000130020E21700207C0000200FB407B5B9
:1020C00004AA52F8041B0448019200F035F803B04A
:1020D0005DF804EB04B070478C0000201FB5144677
:1020E000074A8DE80300029221461A4602A8CDF85D
:1020F0000CD000F021F80022009B1A7004B010BD33
:10210000D9A8200070B505460C460A4E102C07D8F9
:1021100074B12B68224668680649BDE870401847CC
:102120002B68102231466868984710B9103CEDE7DB
:10213000204670BDE1C320002DE9F04F80461546D2
:1021400000268FB00791079B1B78BBB1079F00E06B
:1021500027463C4614F8013B0BB1252BF8D1079BD1
:102160009F4210D0A7EB03094A46D8F800300799E0
:10217000D8F80400984728B14FF0FF3630460FB02A
:10218000BDE8F08F4E443B78002BF7D07B78002BD6
:10219000F4D021460024084610F8012B0B462B2AC8
:1021A00039D02DD8202A39D0232A3AD0A2F13107AC
:1021B000082F3FD84FF0000A0B4611F8012BA2F16F
:1021C0003000092830D91A782E2A4FD159785A1C54
:1021D000A1F13000092842D8002711781346A1F157
:1021E0003000092802F1010234D91A786C2A40F033
:1021F000AA805A786C2A3CD144F0800402333BE038
:102200002D2A04D0302AD1D144F0100401E044F04A
:1022100001040146BFE744F00604FAE744F0020473
:10222000F7E744F00804F4E70A2303FB0A2AAAF1BB
:10223000300AC1E72A2A0AD1D5F800A00346BAF12C
:10224000000F05F10405B8BF44F00104BBE74FF0EF
:10225000000AB8E70A2303FB0717303FBDE72A2926
:1022600003D12F6802330435BFE713464FF0FF3721
:10227000BBE7013344F060041A78642A00F09080D0
:1022800000F28380462A00F0AD806FD8252A00F046
:10229000BE8064D8002A3FF471AF0133079304F481
:1022A000E063B3F5806F00F0698200F2B380B3F5AC
:1022B000807F00F0F380B3F5407F7FF444AF8B4B19
:1022C00014F4804F8A4A18BF1A460DF133030021D7
:1022D0001F462868043550EA010E40F08982FF1A33
:1022E00004BF302203F8012C4FF0780208BF03F13D
:1022F000FF3303F8012C4FF0300208BF012703F829
:10230000022C23220337BA458CBFAAEB070A4FF0F1
:10231000000A14F00104A3F1030903F8032C06D109
:1023200051464046FFF7EEFE00287FF425AFD8F86F
:1023300000303A464946D8F80400984700287FF410
:102340001BAF3E4448E2682A96D15A78682A02D1E7
:1023500044F0200452E7013344F040048CE7412A62
:102360004CD0452A99D144F4424496E7582A33D0B8
:1023700004D8472A91D144F4A1348EE7612A3AD097
:10238000632A8AD144F4A06487E76E2A3CD00AD835
:10239000662A24D029D3672A2AD0692A7FF47DAF00
:1023A00044F4245479E7732A2BD007D86F2A10D02D
:1023B000702A7FF472AF44F440746EE7752A05D03A
:1023C000782A7FF46AAF44F4C85466E744F4106492
:1023D00063E744F4885460E744F4B2445DE744F4AE
:1023E00000745AE744F4844457E744F4024454E741
:1023F00044F4813451E744F4C1344EE744F4E13409
:102400004BE744F4806448E744F4E06445E744F46F
:10241000C06442E7B3F5C06F34D0B3F5E06F00F0AD
:10242000F681B3F5A06F7FF48EAEBAF1010F2B6881
:102430008CBF0AF1FF3A4FF0000A14F0010405F1D5
:1024400004058DF8203007D151464046FFF75AFE6B
:1024500000287FF491AE5644D8F80030012208A934
:10246000D8F80400984700287FF486AE0AF10107E7
:1024700034B151464046FFF745FE00287FF47CAE5C
:102480003E4460E6D8F8003001221A49D8F804002A
:10249000984700287FF470AE013654E6002FACBF99
:1024A00024F01004012714F40053069304F0E00311
:1024B00000F0D480402B00F0CA800AD8002B00F036
:1024C000C980202B18D000220023CDE9002300234F
:1024D00020E0602B00F0BE80802BF4D1073525F082
:1024E000070303F10805D3E9002309E001C4200034
:1024F000CEC1200023C4200095F90020D317043555
:10250000002A73F10001E0DA524263EB4303CDE9A4
:1025100000230123059304F4C053B3F5805F00F05A
:10252000C880B3F5C05F00F0EA80B3F5006F40F0FB
:102530000181DDE90023CDE902230DF1360BDDE950
:102540000223134340F0C9800DF13603A3EB0B03C4
:102550000293029B41F60802BB4238BFFF1A41F2C8
:10256000080304EA020228BF00279A4202D1002F82
:1025700008BF012741F60801029B8A4203EB0700CE
:1025800040F0DC80DDE90023134300F0D780A2494E
:1025900014F4804FA14B4FF0020908BF0B46069A76
:1025A00072B1059A002A40F0CD8004F00602022A9A
:1025B00000F0CC80062A9A4A04BF4FF00109134666
:1025C00009EB000292458CBFAAEB020A4FF0000A09
:1025D00014F00102009204D1E10640F1BB8057449F
:1025E0009246B9F1000F09D0D8F800404A46194682
:1025F000D8F80400A04700287FF4BEAD3C46029BFB
:102600001E44102CD8F8003000F2AE803CB12246B7
:102610008449D8F80400984700287FF4ADADD8F875
:102620000030029A5946D8F804004E4498470028D2
:102630007FF4A2AD009B3E44002B00F0D0805146B9
:102640004046FFF75FFD002800F0C98094E5B5F92A
:10265000002053E72A680435D31751E7402B1FD0D9
:1026600009D8FBB1202B14D00023002205930023AE
:10267000CDE900234FE7602B14D0802BF4D1073530
:1026800025F0070303F10805D3E90023CDE9002372
:1026900004E02A780023CDE900230435069B39E7BE
:1026A0002A88F7E72B68002219460435CDE9001285
:1026B000F4E70DF1360BDDE9002352EA03013FF4A4
:1026C00043AF02F0070130310BF8011DD10841EA98
:1026D0004371D8080A460346EFE7DDE902010A2202
:1026E000002307F089FCDDE9020130320BF8012DEF
:1026F00000230A2207F080FCCDE902011FE74A4BC4
:1027000014F4804F0DF1360B484918BF1946DDE926
:10271000002352EA03003FF417AF02F00F00085CF9
:102720004FEA131E0BF8010D100940EA0370024630
:102730007346EEE70DF1360B002309E74FF0000971
:102740004B462CE74FF00109394B39E74FF00109AF
:10275000384B35E7514640460593FFF7D3FC059BC0
:1027600000283FF43EAF07E510222E49D8F80400B8
:10277000984700287FF400AD103C42E7D5F800B040
:102780000435BBF1000F2ED0D94699F8003009F17D
:10279000010233BBA9EB0B09002F02DBB94528BFAF
:1027A000B946CA458CBFAAEB090A4FF0000A14F0DB
:1027B000010406D151464046FFF7A4FC00287FF4EF
:1027C000DBACD8F800304A465946D8F804009847A0
:1027D00000287FF4D1AC4E44002C7FF430AF564437
:1027E000B1E49146D1E7DFF850B04FF00609D3E7E6
:1027F00000F00F0E12F80EE04FEA111C03F801ED85
:102800004FEA101E4EEA017E7046614663E52B6872
:1028100004351E6097E400BF12C4200015C42000D8
:102820001AC42000F1C3200001C42000CEC1200042
:1028300018C420009AC320001CC42000F8B50388E7
:10284000064615462BB14A2B17D0002303800320E0
:10285000F8BD164808F0BAF8044634B90122144B02
:102860001A704A2333800120F8BDA168201D08F0AA
:102870005FF82468F1E7246805E08829F3D10B4864
:1028800008F0A4F80446002CEBD0231D9D42F2D1A1
:102890002146064808F0A3F8064D62692F682A60B1
:1028A000A2690AB1E06990472F60DAE70C040020C2
:1028B0007F1800209805002010B50024054B06481D
:1028C0001C7008F080F82146BDE81040034800F075
:1028D00049BA00BF7F1800200C040020940000209B
:1028E00070B50446E3610B4B049D1B786561A261E2
:1028F0006BB1094D094B2E68201D2B6008F018F8AC
:102900002E602146BDE87040054808F07DB8A16002
:10291000F7E700BF7F1800209805002094000020F2
:102920000C04002013B5034C24680094FFF7D8FF73
:1029300002B010BD9805002070B5094B05461B7804
:102940003BB1084C084B26680430236007F0F9FFC0
:1029500026602946BDE87040044808F055B800BF1D
:102960007F18002098050020940000200C0400200F
:1029700070B5094B05461B783BB1084C084B2668DF
:102980000430236007F0E6FF26602946BDE870406A
:10299000044808F039B800BF7F18002098050020CF
:1029A000940000200C04002010B5084B04461B784E
:1029B00043B1043000F0B0F82146BDE810400448AF
:1029C00008F00DB8C3600361F6E700BF7F18002070
:1029D0000C04002010B50C4C236813B90B4A13608B
:1029E00010BDFEF727FA226892E80A000B441B1A72
:1029F00092680AB90344F1E792E812002144091AE7
:102A00008B4228BF0B46F3E714040020100400207B
:102A1000014800F0BFB900BFA40000202DE9F84331
:102A20000388054633B1592B46D000230380032089
:102A3000BDE8F883234A136059232B800120BDE8A9
:102A4000F88301209B681BB90028F5D00B60F3E7E1
:102A5000DC68A242F5D000B10B6099680029EBD088
:102A6000C86882420ABF89680B469960F5E78229E7
:102A7000E2D1144F4FF00009B84600263C68002C04
:102A8000DAD0204607F091FF98B122468821E0680D
:102A900000F040F958B9E060A3682EB1B360C4F803
:102AA0000890FFF797FFE8E7C8F80030F7E7FFF76F
:102AB000AFFF2646A468E2E78729D8D10149002064
:102AC0000B68C0E71404002010B50446FFF7A0FF10
:102AD000E3680B4A0BB1136833B90A4B1B68E36018
:102AE00013681460A36004E0A34206D1054A12688B
:102AF000DA60BDE81040FFF76DBF9B68ECE700BFF0
:102B00001404002098050020024B1868003018BFFC
:102B1000012070471404002010B50B4A04461368C6
:102B2000834208D183681360FFF754FF0023A3603A
:102B3000E36010BD1346002BF8D09A689442F9D197
:102B4000A2689A60F0E700BF1404002038B58368DB
:102B500004460D469BB10A4804600220A07304F1AC
:102B60000C0098470238012801D9832D05D1214650
:102B70002046BDE8384000F005B80123A37338BDF6
:102B8000980500202DE9F8431C4F89463D681C4EEE
:102B90002C46D6F80080844204D00CB9BDE8F883F6
:102BA0002468F8E7ACB1A37B63B10023A37395B9A4
:102BB000A3683BB14C4505D034602A46832104F11B
:102BC0000C0098473B689C420FD123683B60C6F8D5
:102BD0000080BDE8F883AC4204D022468721284615
:102BE00007F0C9FE2D68E2E71346002BEFD01A6804
:102BF0009442F9D122681A60E9E700BF9C050020E1
:102C000098050020002370B501261D46084A137060
:102C1000084A146804B970BDE37B33B1A673E57349
:102C2000002282212046FFF791FF2468F2E700BFCF
:102C3000831800209C050020024B1878421C1A7053
:102C4000704700BF811800208A22064B1A700023AB
:102C5000054A1370054A1370054A1360054A13604C
:102C6000704700BF811800208018002082180020C3
:102C70009C050020980500202DE9F0411B4D2B7884
:102C80000BB1FFF7BFFF1A4C22789AB10C21194EF5
:102C9000194F3378013A5943781817F801800133F6
:102CA0004768806803F01F033370227090B9134B9C
:102CB0001E6826B92B7820781844BDE8F0812B785F
:102CC0000BB1FFF79FFF30463A46414607F053FEEF
:102CD0003668EEE7B8F1810F08BF01233A4608BF16
:102CE0008373414607F047FEE4E700BF83180020E6
:102CF0008218002080180020180400209C05002065
:102D0000024A034B10781B78184470478218002041
:102D100083180020F0B50B4E3378202B0FD00C25F4
:102D2000094C0A4F24781C4404F01F046C430133FF
:102D30003D19A86039556A6033700020F0BD01204C
:102D4000F0BD00BF82180020801800201804002069
:102D500038B5034C256807F00EFE256038BD00BF6E
:102D60009805002030B40A4C0A4625682B46834259
:102D70000CD04BB950B10121056081732060838173
:102D8000812130BCFFF7E4BF1B68F0E730BC70471F
:102D90009C05002038B1837B013B012B9FBF0123A1
:102DA000014AC3731370704783180020024610B5A0
:102DB000064853600468029B11609360026014B976
:102DC0000846FEF781F8002010BD00BFA0050020D6
:102DD00010B5084C206858B100238168236043680F
:102DE0009847236823B1BDE810401868FEF76CB817
:102DF00010BD00BFA005002070B505880446672DF2
:102E000008D0792D32D06DBBFFF716FF1A4B187022
:102E10001A4B1D601A4E194D304607F084FE431CB4
:102E200003D167232380012070BD0A282B6806D0B8
:102E30007E2BF1DC5A1C2A60124AD054ECE75A1C53
:102E40002A6000250F4A2846D5540B4B1978FFF706
:102E500061FF0D4B2A4685211868FFF75BFF38B9E3
:102E60007923DFE700230380032070BD8529DAD1B1
:102E70000022024B1A60CDE747260020A40500205F
:102E8000A805002084180020980500200D2810B502
:102E9000014616D00C4C237853B90C4807F030FE8D
:102EA00008B9012323700A48FFF774FF012010BD01
:102EB0000A28F8D1054807F023FE0028F3D00023A4
:102EC000F0E7002010BD00BF04190020A805002075
:102ED000B400002008B505490548802207F009FE26
:102EE000BDE8084000210348FFF73CBF051900205A
:102EF000A8050020B40000202DE9F0410488064612
:102F0000772C21D07E2C43D0002C3CD1FFF794FEAF
:102F1000294D2A4B2A4FDFF8B48018702C602B689B
:102F200057F8232032B9274A1370772333800120C2
:102F3000BDE8F08108F8034093680021802098479D
:102F40002B6801332B60EAE700231F4A13601A4AFB
:102F50001360194B1B4A1B6812789A4204DC1A4B07
:102F60001B68002BF0D1E0E7184AD256002A1EDA7F
:102F7000134A002052F82320104B1978FFF7CAFE9D
:102F800050B97E23D2E7002303800320BDE8F081FF
:102F90000A4B1B788B42CAD1074B0C491A688B5CD1
:102FA00003F07F038B54084A136801331360024A0D
:102FB00013680133CCE700BFB40500204826002089
:102FC000FC01002085190020B005002053260020B8
:102FD00010B40A4B0A491A780023934203DA51F8D5
:102FE0002340A04208D107490748CA5C62F07F022B
:102FF000CA5410BCFFF7CEBE0133EEE7851900209E
:10300000FC01002053260020C4000020064A13685B
:1030100043F004031360054B186804331B6840EA4F
:10302000032080B2704700BF00700D4014700D4047
:1030300010B5174A136823F00C0313600122154BD7
:103040001A601A68012AFCD10822134B13491A602E
:10305000E32203F505731A601A460B68DB07FCD5FB
:103060000F4C102100232068013900F0010043EAD1
:1030700000034FEA43039BB2F5D1002BF1D009497D
:10308000180A03F0FE0308600B60EF23136010BD05
:1030900000700D40A8200D4024860840648608403A
:1030A0009C86084014700D402DE9F341154D0091A8
:1030B00004460E4690461F460195034620220321F2
:1030C000114807F040FD01282B4618D12A6804F169
:1030D0001001107020462A68023250F8044B8842D2
:1030E00042F8044BF9D11868089B86744361099B28
:1030F00080F813800777836102B0BDE8F08100207B
:10310000FAE700BFC005002040200020F8B50746C0
:103110000B4E0C4D2E6060362C68B44201D300205B
:10312000F8BD237833B1A27C3946D208A01C07F041
:10313000EBF810B120342C60EEE70120F8BD00BFA1
:1031400040200020C0050020802313B5074C0093C9
:103150000194034620220321054807F0F4FC10B92E
:10316000206802B010BD0020FBE700BFB8050020BA
:103170005C1F002030B548F2FE040B490B4A116079
:10318000603113688B4202D30023184630BD1D788E
:103190003DB1451C02D09D7C854202D15D88A5428F
:1031A000F3D020331360ECE75C1F0020B80500204B
:1031B00030B548F2FE040B490B4A116060311368C8
:1031C0008B4202D30023184630BD1D783DB1451C0B
:1031D00002D09D7C854202D15D88A542F3D1203387
:1031E0001360ECE75C1F0020B8050020802337B592
:1031F0000F4D0093044603460195122205210D4808
:1032000007F0A1FC01282B460FD12A6804F1100118
:10321000107020462A68023250F8044B884242F867
:10322000044BF9D1186803B030BD0020FBE700BFA4
:10323000BC050020E01F00208023F7B5204C009340
:10324000054603460E4617460194202203211D48D9
:1032500007F079FC012831D12A46236805F11001D5
:1032600018702368023352F8040B8A4243F8040BA7
:10327000F9D12068C774D6B90123037501212368E9
:10328000114899740223FF22437000230270438087
:103290008380C38003818372C17202736B7B43732B
:1032A000EB89C381FFF7A2FF206803B0F0BD0023C4
:1032B00031460375183008F0DFFDDFE70020F4E742
:1032C000B80500205C1F002006130020802313B5E2
:1032D000074C00930194034612220521054807F08C
:1032E00032FC10B9206802B010BD0020FBE700BF1F
:1032F000BC050020E01F002038B50546C8B10222F9
:103300000C4800244270FF2301224480C272848052
:10331000C4800481847203730370EB7B43732B8A34
:10332000C381FFF7D3FF044A106008B107F02FFCF8
:103330002C7038BD06130020BC05002038B50E4D9A
:103340000E4C256060352068A84206D300F002FBD1
:10335000BDE838400A4807F0F4BA037843B1037D6A
:1033600033B9183006F036FB10B12068FFF7C4FF00
:10337000236820332360E6E75C1F0020B8050020A7
:10338000A020002048F2FE022DE9F84F0B880546E8
:1033900093420F460B782DD0FF2B2DD000242249CD
:1033A000A04689469346214B0B6003F1600AD9F889
:1033B000006056450AD36CBB2C806C80AC80EC80DE
:1033C0002C816C81AC81EC81BDE8F88F33786BB1D6
:1033D000B37C012B0AD173885B4507D0B11C3846FA
:1033E00007F0E2FB80459CBF344680462036C9F892
:1033F0000060DCE7FF2B09D17B7803F00F03022B81
:1034000004D90120FFF7D4FE0446D4E70120FFF7DA
:10341000B1FEF9E7A31C123453F8042BA34245F87C
:10342000042BF9D1BDE8F88FB80500205C1F0020FF
:1034300070B5094EB0684508FFF7E8FD0446FFF790
:10344000E5FD2402B268A4B22044B0FBF2F302FB13
:103450001300284470BD00BF441F002073B52F4CDB
:1034600001F0D6FA00F094F8602200212C4807F011
:1034700055F80021F822204607F050F82022294B69
:1034800040261A701822284B26711A704FF4A06338
:103490002360264B0025A360FFF7CAFF42F210739A
:1034A000236148F2FE03E0602575214C2A46238003
:1034B00065802B46A580E580314601950095204624
:1034C000FFF7F2FD20461B4907F065FB2946012264
:1034D0002046FFF7B1FE40F2FF264FF480732046EE
:1034E000E38126806580A580E58025816581A581B1
:1034F000FFF77CFE4FF40073204626806580A58090
:10350000E58025816581A581E381FFF76FFE0C21B0
:10351000094802B0BDE8704007F00ABA441F002015
:10352000402000203D2000203C200020C027090032
:1035300006130020BC200020A02000202DE9F04729
:10354000054610480F46904607F040FA0446DFF85B
:103550003890DFF838A00CB9BDE8F087012D0DD800
:10356000504607F066FA03464246394628466668E2
:10357000B047204607F064FA0446ECE7D9F800307B
:10358000F2E700BFA8060020AC06002014060020C9
:1035900008B50B4807F057FA0A4807F014FA0A4B27
:1035A0000A49186804F014FB094807F04CFA094866
:1035B00007F009FABDE80840074807F004BA00BF61
:1035C00000010020B0060020E0000020E7AB200052
:1035D000D400002014060020A806002008B540B141
:1035E000044B4168186808F006FABDE8084007F087
:1035F00024BB08BDE0000020014807F0E7B900BF88
:10360000B006002008B507F01AFB38B1044B01469C
:10361000186808F0DDF9003018BF012008BD00BFB0
:10362000E00000202DE9F04180460027FFF7E4FF8D
:103630003C4605461DB9BCB92046BDE8F08195F869
:103640002460B7420AD8F20805F10801404606F0A6
:103650005BFE18B9802E06D037462C46284607F068
:10366000BEFA0546E6E72C46064807F0AFF9844265
:10367000E2D02146034807F0B2F92146014807F09D
:10368000D0F9D9E7B006002038B5044600283FD06D
:103690004368002B3CD001461E4807F0A0F9636840
:1036A000586807F093F9054668B343689C4226D1F1
:1036B00063682946586807F092F96368586807F00C
:1036C00085F928B963685968134B186804F02EFB14
:1036D0002146124807F0DBF92946114807F0D7F9CF
:1036E000104A20461368013B1360FFF777FF04F18F
:1036F00008010246BDE838400320FFF71FBF2846F7
:1037000007F09EF9CFE704F1080002F0DBFDCFE7F8
:1037100038BD00BFB0060020E000002000010020FE
:10372000F4000020AC06002010B5044680B14068CB
:1037300070B107F04BF930B9064B2146BDE8104097
:10374000186804F0F3BA4068FFF79EFF6068F0E77E
:1037500010BD00BFE00000202DE9F84F8046104664
:103760008A46914607F06BFA834618B90024204632
:10377000BDE8F88F4046FFF755FF044660B1FFF7FC
:103780002DFF014628B11022484606F0BDFD002855
:10379000EDD02046FFF778FF284F3B680A2BE5D095
:1037A000274E5946306808F013F9054668B90346B4
:1037B00004225946306804F03BFA05460028D5D06B
:1037C00000236860036007F0FEF81E4807F04BF91D
:1037D00004460028CAD001461B4807F022F91B48BE
:1037E00007F041F920B92146164807F050F9BDE726
:1037F00044600146686807F007F93B68656001337B
:10380000294630683B6004F0A7FA434604F10805F6
:1038100008F110062A4618685968083303C2B342F3
:103820001546F7D1002284F824A0A261E261226249
:1038300041464A460220FFF781FE98E7AC06002089
:10384000E000002000010020B0060020F40000206D
:1038500038B505460D4807F0B9F8044600B938BD3B
:10386000AC420ED12146094807F0B9F82146084874
:1038700007F00DF9221D1146BDE838400120FFF781
:103880005DBE204607F0DCF8E7E700BF1406002025
:10389000D400002038B50546084807F097F80446DC
:1038A00008B9204638BD10222946201D06F02CFDFF
:1038B0000028F6D0204607F0C3F8F0E714060020F1
:1038C000F8B505460F46FFF7E5FF044640B9134833
:1038D00007F0C9F80446E0B10146114807F0A1F825
:1038E0002B46261D05F1100E32461868596808331C
:1038F00003C273451646F7D16FB1394604F114007F
:1039000008F0BAFA002323772A4629460020FFF759
:1039100015FE2046F8BD0123F5E700BFD4000020C6
:103920001406002038B50A4807F050F80025044670
:103930000CB9284638BD251D284601F09DF810B168
:10394000437C002BF5D1204607F07AF80446EFE7D8
:103950001406002038B50D4807F038F804460B4D22
:1039600004B938BD237F63B904F1140006F032F8BE
:1039700038B12046FFF76CFF284607F027F80446C9
:10398000EEE7204607F05CF8F9E700BF14060020D8
:1039900037B5124B124D1C782B7905F10801C4EB99
:1039A00003226B7913449BB2ADF80630BDF80630A4
:1039B0002022184480B207F018F9BDF8062004F15F
:1039C000280192B2294407F010F918B140BA80B228
:1039D00003B030BD4FF6FF70FAE700BFA119002019
:1039E000C4200020022000212DE9F0412A4F2B4D58
:1039F00097F800E02A4C0EF1280C0CEB05035E78DA
:103A00002070F6000736864202DA59B3207029E0AA
:103A10000CEB000305EB0308EB5C012B37D00CD358
:103A2000632B0ED003F0C003802B1ED0C02B28D0F8
:103A3000402B2CD151B1207008E00130C0B20121DF
:103A4000E1E701B1207003F077F910B90120BDE87A
:103A5000F08122783B78134913440B445B7802329F
:103A60001A4422700020BDE8F08101B1207070443A
:103A700000F128020221042006F092F80220BDE89D
:103A8000F08101B120702B7EFF2BF0D1DEE7821C8C
:103A900098F801001044D1E7A1190020C4200020AB
:103AA000A2190020EC200020F0B5C578124B0D447F
:103AB000EDB2DD7082780F0A3A44D2B29A7044783F
:103AC00097425C7006781E7005D9601CC0B25870B1
:103AD00008B901361E70C9B28D420BDA0132D2B27A
:103AE0009A703AB95A780132D2B25A7012B91A7829
:103AF00001321A70F0BD00BFB820002010B5094C8B
:103B00000146236803F11400FFF7CEFF064A23683D
:103B100011781975517859759178D2789975DA7547
:103B200010BD00BF60210020B820002007B5FFF7BE
:103B300095FC06F01DF901F01DF900231946124A03
:103B400022F813100133082BFAD1002319460F482D
:103B50001A183033B3F5F07F82F82510F8D14FF4FE
:103B600080620B4B0B481A80002319461A18203329
:103B7000B3F5A07F1182F9D1074B5B68019303B0C5
:103B80005DF804EB184700BF4C230020642100209F
:103B9000161300206023002028C02000F8B5104E26
:103BA000357845B10F4F05F127033C88A34203DB6D
:103BB00000233B803370F8BD0B4BA4F12802521B4D
:103BC0005919184606F046FC641BA4B23C80283CF8
:103BD000221200F8242C00F8234C0023EAE700BF4F
:103BE000A1190020B0200020EC2000200023064A6C
:103BF00032F81310814203D1002122F813107047CC
:103C00000133082BF4D170474C2300200023054AD0
:103C100032F8131011B922F8130070470133082B42
:103C2000F6D170474C23002004282DE9F74FB84CFB
:103C300000F03481DFF804E3B64EB74BB7490328F0
:103C4000DEF8005033600B60F046374672D195F8CD
:103C5000252002F00F02032A14D1AB8B002B40F079
:103C600096800822AE4B1A7002F0F8FAAC4B1A7824
:103C7000AC4B12F0200100F0038600221A8085F878
:103C80002520AAE0022A40F08280A3F13C0B002309
:103C90008BF83530A44B93F8352042F0020283F8BC
:103CA0003520022283F83C20042283F83D200022A4
:103CB00083F83E20402283F83F202280602283F850
:103CC0003420994E2B7D06F1180786F830306B7D35
:103CD00086F83130AB7D86F83230EB7D86F83330B4
:103CE0002B7E86F82C306B7E86F82D30AB7E86F8E6
:103CF0002E30EB7E86F82F302B8A33856B8A7385C6
:103D000095E80F0087E80F00394606F10800FFF735
:103D100039FB95F8253013F0100313BF002386F804
:103D200036303C2386F8373014BF86F8363086F8B4
:103D300037305CE3022840F09C8000237B4A2380DC
:103D40001370784A13807A4AD3780133DBB2D37088
:103D500063B993780133DBB293703BB95378013385
:103D6000DBB2537013B913780133137095F8253013
:103D700003F0FD02052A13D195F826300133DBB29A
:103D8000782B85F8263002D1002385F825300023D2
:103D9000664A23801370674A1370614A137098E172
:103DA000002BF4D0AA8B5E48002A5BD095F8262021
:103DB000511E85F82610002AE9D195F82720082AF7
:103DC00004D0591E01290BD8052A09D1002385F8F2
:103DD00025308023037002F041FA142200F00FBD59
:103DE000042A94BF0321302103F00F0398BF9140B0
:103DF000013B013285F8261085F82720072BC6D80D
:103E000001A252F823F000BF09452000293E2000FE
:103E1000333E2000FD4720008F3D2000FD4720005D
:103E20008F3D2000FD47200000223F4B83F83520C6
:103E300030E70423037002F011FA384B1B683B6033
:103E4000384B1B88002B00F03B85AB8B002B00F020
:103E5000378518223C332380334B83F8352050229A
:103E6000314B2CE703F00F03032B90D10823037091
:103E7000FAE6052864D1304A1268128A002A86D0F0
:103E800000220C3B33600B60264BCEF800201A80DA
:103E900022800822224B1A7002F0E0F9214B1A8886
:103EA000002A3FF474AF02F130039BB223801E4C12
:103EB000283B19126371204B08321B6852BA2171DA
:103EC000197DA2850022E1711121E2851A8AA17172
:103ED00022855A8A04F1180562850FCB85E80F0008
:103EE000294604F10800FFF74DFA0A4B04F13C02A1
:103EF0001A6006F09CFEC04380B2002800F0E48106
:103F0000E0856022084B1A7000225A705A80DDE06A
:103F1000B02000205C21002000210020B4200020DF
:103F2000502100205C230020C4200020A119002083
:103F30009C190020A0190020582100206021002099
:103F400013F83C2CA3F13C0B02F0F002602A7FF442
:103F50001EAF9BF804309BF805201B02218898189F
:103F600088423FF714AF2832134423809BF808306F
:103F7000FF2B3FF40CAFA64B0BF106021A60002298
:103F8000A44EA54D32702A709BF80620994652B96E
:103F900001232B70FFF726FD01283FF4F8AE39D33B
:103FA000022800F093809BF81830FF2B3ED19BF83D
:103FB000193003F00F03022B38D9984BDB68984770
:103FC00001287FF4E4AED9F8002092F800A0BAF1FD
:103FD0002B0F00F0E68000F2BA80BAF1060F00F075
:103FE0007781BAF1110F00F02181BAF1000F40F092
:103FF000B6802B78D80700F1B28043F001032B7014
:10400000FFF7F0FC01283FF4C2AEC0F0BE800228EA
:104010005CD0D8E7337803F128025A44C9F800206D
:104020005278083303EBC2033370BCE77C48FFF7D8
:104030008BF80028C7D17A48FFF748F90028C2D189
:104040009BF81830FF2B53D048F2FE00BBF8182025
:1040500082424DD0BBF80810814249D0A1B9BBF8CB
:104060000A1089B9BBF80C1071B9BBF80E1059B918
:10407000BBF8101041B9BBF8121029B9BBF81410E5
:1040800011B9BBF8161099B3B2B9BBF81A209AB996
:10409000BBF81C2082B9BBF81E206AB9BBF82020EF
:1040A00052B9BBF822203AB9BBF8242022B9BBF898
:1040B0002620B2F5807F1BD02388B3F5A06F0BD9E3
:1040C0004FF4A0620021022005F06AFD0022554B4A
:1040D0001A7003B0BDE8F08F9BF80730012B03D8AE
:1040E000002203201146EFE7013B8BF80730EDE794
:1040F00048F2FE02BBF8081091427FF448AEBBF8CC
:104100001820BAB9BBF81A20A2B9BBF81C208AB98A
:10411000BBF81E2072B9BBF820205AB9BBF8222088
:1041200042B9BBF824202AB9BBF82620B2F5807F1B
:104130003FF42DAEFF2B3FF42AAE3948FEF7E6FFE1
:10414000024600287FF423AE02210120BCE7BAF129
:104150003A0F3ED007D8BAF12C0F3FF418AEA2EBBD
:104160000B0201212BE0BAF13B0F3FF410AEBAF184
:104170003C0FF4D12B78990704D55806EFD443F0BF
:1041800040033CE743F0020339E7337803F12802A8
:104190005A44C9F800205278083303EBC203337045
:1041A00011E72B7813F00401D9D1327843F00403DE
:1041B0002B7002F128035B44D87810B12A32042016
:1041C00082E7C9F800305B78083202EBC302327034
:1041D000F9E606F026FD4FF6FF7398427FF4D7AD5F
:1041E0003378114AD05C01F0C3FE337828330BEBEF
:1041F00003021BF80300517805F0B0FC012802BF50
:104200000023238033702388002B3FF4C0AD5DE78B
:1042100054210020A1190020A019002028C020004E
:10422000DC20002050210020EC200020FFF7B6FC0D
:10423000BBF82E308BF806A09BB9BBF82AA0BAF1C8
:10424000000F3FF4A4ADB54BB54E03F5A079336034
:10425000BBF828B0B34B35684D450AD30022042182
:1042600073E706F0E4FC4FF6FF7398427FF48FADDE
:10427000E3E72A8AAAB1924513D16A8A0AB15A455C
:104280000FD12A682AB96A681AB9AA680AB9EA680D
:1042900052B1184610222946019306F035F8019BC9
:1042A00010B120353560D6E7022023889E49303B87
:1042B000238000239D4A08709D493A600A609D4A08
:1042C000C8F800301380E7E54FF6FF73E38518E682
:1042D000FFF764FC8BF806A006F0A6FC4FF6FF7310
:1042E00098427FF454ADBBF82A90B9F1000F3FF427
:1042F0004EADBBF828A0BAF1000F3FF448AD8E4D8B
:1043000095F8253083B12A8A4A450DD16A8A5245EB
:104310000AD1102229468348019305F0F5FF019B3D
:104320000246002800F01681844B30359D42E7D9C3
:104330009BF8353003F03F03022B08D10023804A5D
:1043400032F81310494568D00133082BF8D19BF897
:10435000353059073FF51BAD14238BF835303C231E
:10436000238050238BF834309BF833309BF8310096
:104370009BF82F108BF82F309BF832309BF82E20B3
:104380009BF830508BF82E3001319BF82D308BF894
:104390002D009BF82C00C9B28BF832208BF83130FD
:1043A0008BF82C508BF830008BF8331061B9013248
:1043B000D2B28BF832203AB90133DBB28BF831300C
:1043C00013B901308BF830005E4DBBF82830BBF8D4
:1043D0002A20A5F11006ABF82820ABF82A3096E881
:1043E0000F0085E80F0029463046FEF7CBFF062375
:1043F000554DAB71554B1B79EB712388283B1A1235
:104400006B7100232A7185F83B3085F83A302B8791
:1044100006F00AFCC043288773E500252A46464B70
:1044200093F8251000294AD13025434B05FB02356E
:10443000032385F8263085F82430042385F82330BB
:10444000384B00260FCB85E80F000120404B85F844
:1044500025001A78A8832A765A78C8F800506A7618
:104460009A78DB78AA76EB769BF82C3085F8226078
:104470002B759BF82D3085F827606B759BF82E30D7
:10448000A5F81090A5F812A0AB759BF82F30EB752E
:10449000FFF734FB9BF8343003F0F002502A33D995
:1044A0001A093346053A92000BEB030191F83C00E0
:1044B00050B3012817D101339342F5DB24E00729DB
:1044C00007D175B193F8260095F82610884288BF69
:1044D0001D4601320A2A03F13003A1D1002DA7D1D4
:1044E00055E41D46F5E7022810D191F83D00042857
:1044F0000CD191F83E2091F83F3043EA0223402B43
:1045000028BF4023EB832B8410228EE40BEB0301A6
:1045100091F83D100029F7D00B44CDE7602300202F
:1045200058210020CC20002050210020F420002021
:10453000B42000205C2300206421002014230020EC
:104540004C230020DC200020C4200020441F002039
:104550009C1900209BF835E0C5491EF0040FC8F8EF
:1045600000500870894606D0202385F825000B707E
:1045700001F074FE0BE421889BF83400283900090F
:10458000A1EB800103F00F0389B2022B218018D127
:104590000EF03F0012281AD011B91EF0030F16D0EA
:1045A000DBF82C006969884211D01EF0020F04D09C
:1045B000012BA9D0022B3FF46DAB10238BF83530C3
:1045C00020E1012BE8D10EF03F000228E3E71EF0C6
:1045D000100F53D0A98B002950D005F1180001927B
:1045E000FFF762FAA34B9BF8301093F800E0019AB2
:1045F0008E4543D19BF83110587888423ED19BF8C4
:1046000032C09978614539D19BF833C0DB78634576
:1046100034D1EB7695F8273085F818E06876A976DE
:104620001BBB95F824E095F8263095F82200AEEBF8
:10463000030EAEEBD00E5FFA8EFE4FFA8EF3002B18
:1046400095F823107044BCBFCEF1000E4FFA8EF3E4
:10465000A1EB91010B44C0B2DBB285F8233003EB30
:10466000D00385F8220085F82430012389F8003032
:1046700095F8243085F826300023AB8395F8251073
:1046800001F00F03013B072B3FF681AB01A050F86F
:1046900023F000BFB5462000F5462000B3472000B8
:1046A000ED482000434920006D492000BB45200013
:1046B000D548200099F80030DA0713D5032385F890
:1046C0002530402389F8003000232088AB8320B1B7
:1046D000422389F80030FFF711FA0022664B1A8056
:1046E000FFF7C2BA9BF8353003F03F03022B7FF48B
:1046F0004EAB09E799F80030DB074FD59BF8353012
:1047000003F03F03122B49D19BF8343003F0F00142
:1047100050291ED91B09053B9B000BEB020191F8A8
:104720003C00B0B1012803D101329342F5DC10E026
:1047300002282BD191F83D00042827D191F83E2082
:1047400091F83F3043EA0223402B28BF4023EB83FC
:104750002B84032385F825309BF82C3001202B7502
:104760009BF82D306B759BF82E30AB759BF82F3076
:10477000EB75FFF7C3F9422389F8003000233E4A66
:10478000AB83238033701380FFF76EBA0BEB02010B
:1047900091F83D100029DCD00A44C6E7202389F8AF
:1047A000003001F05BFD0022D8F8003083F82520AE
:1047B000CDE59BF83530D80728D5CA0626D4AB8B73
:1047C000002B7FF4E4AA2088013080B2FFF796F92D
:1047D00099F8003043F0100289F8002022881AB1BD
:1047E00043F0120389F8003001F038FD0123AB8358
:1047F000082385F82530002385F8273011221F4B28
:1048000083F835203C232380FFF729BB9B060FD577
:10481000BBF83A3038685BBA9BB29BF83A609BF8B9
:104820003B201844238842EA06229B1A38602380E2
:10483000208848B1CE0607D499F8003043F002032F
:1048400089F80030FFF75AF99BF836209BF837308B
:1048500003EB02232A8C9BB2934202D8002B18BF91
:104860001A4699F80030EA8399073FF490AA34E792
:1048700050210020B82000205C230020C42000200C
:1048800012F0100008D019800123AB83042385F8AF
:10489000271085F82530B1E7198851B1D20748BFF4
:1048A000A883AA8B52B9EA8B914288BF1A801B88D1
:1048B000AB83002385F82730FFF7BFBA1A80F8E7EB
:1048C000314B1B789F077FF562AA3C23102223807F
:1048D000FFF7C2BA99F80030DE077FF558AA002327
:1048E00085F82530102389F8003041E6208808B18A
:1048F000FFF704F99BF8353013F0010317D099F84E
:104900000030D80749BF0723062385F82530002348
:1049100052BF85F8253085F82630AB830120FFF79C
:10492000EDF8102389F8003001F098FC45E699F87D
:104930000020D10714D50522AB8385F82520FFF789
:1049400026BA208808B1FFF7D9F89BF83530DA0786
:1049500006D5072385F82530002385F82630DDE7C6
:104960002388002B7FF429AEFFF711BA99F80030A5
:10497000DB077FF50CAA072385F82530002385F88F
:104980002630FFF704BA00BF50210020054BC0F3CA
:10499000072203EA0023000C40BA134380B240EA26
:1049A0000340704700FFFF000D4B1B6883B10D4AA9
:1049B000D21A9142A8BF114600290FDD0A4A83424C
:1049C00011800BD08AB2014633B9084805F0CCBC3F
:1049D0005029A8BF5021EFE71846F7E7704700BFFE
:1049E000B4200020502100205C2300200021002062
:1049F00010B5044640B102F0F3FA044B2146BDE87D
:104A00001040186803F092B910BD00BF0C010020DF
:104A100008B503F069FB034B03491868BDE808407B
:104A200003F0D6B80C010020F149200070B504460F
:104A30000C481E469DF81020059B006803F0F8F80E
:104A4000054668B120462B4604F1100250F8041BBD
:104A5000904243F8041BF9D16E74284602F0C0FA64
:104A6000284670BD0C010020024B0146186806F074
:104A7000C2BF00BF0C01002070B50C4D064628686F
:104A800003F0BAF8044676B90024204670BD10221F
:104A90003146204605F038FC0028F6D0214628682B
:104AA00006F07BFF0446002CF1D1EDE70C0100205D
:104AB000024B0146186806F08BBF00BF0C010020B6
:104AC00070B5054610200E4603F064FA0849044606
:104AD00006F0C0FF58B932462946204603F0A2FA34
:104AE000324629462046BDE8704002F04FBA70BDFC
:104AF000A4C420002DE9F04F924C87B0E379924F87
:104B0000FF2BDFF8649240F018813A7804F12C050D
:104B100053191B79FF2B00F01081224492F82920B1
:104B2000002A40F00A81894B894E1A601422984667
:104B3000DFF838A2327004F1080B387832782C3064
:104B4000B9F8003002449A42C0F28F802044043009
:104B5000FEF7FAFA7F4B18609846002800F0ED80C7
:104B600023897BB963896BB9A3895BB9E3894BB9A5
:104B7000238A3BB9638A2BB9A38A1BB9E38A002B2A
:104B800000F0DB80DFF8E8A15046FEF7DDFA56467C
:104B9000002840F0D28040F2FF23228B0AF1100B54
:104BA0009A4240F0B880638B002B40F0B480A38B16
:104BB000002B40F0B080E38B002B40F0AC80238CC6
:104BC000002B40F0A880638CB3F5807F40F0A38079
:104BD00094F82430FF2B40F09E809AE80F008BE879
:104BE0000F003B781D44043595E80F008AE80F005C
:104BF00060222270282262713A22A271FF220023D1
:104C0000E27188223B7063706380237184F82930DD
:104C1000E02384F82820D8F800204F4E84F82C3068
:104C2000931C1232354618685968083303C59342FD
:104C30002E46F7D10223494984F840300A6884F8A7
:104C40004130C4F84220464B4A685A600022C4F8FA
:104C50004A209A81628505F0E4FF5023C043A9F8F9
:104C60000030608507B0BDE8F08FA318597800299F
:104C700063D0A25C012A26D12289C8F8003072B91B
:104C8000628962B9A28952B9E28942B9228A32B9EB
:104C9000628A22B9A28A12B9E28A002A4DD053F858
:104CA000020F04AA596803C25846FFF7E5FE024600
:104CB000CAF8000080B905230190009304A90223DB
:104CC0005846FFF7B3FE32783B7813442B445B78A9
:104CD00002EBC302327030E7FFF7C6FE034660B353
:104CE000D8F80000194608220230039305F00CFBA7
:104CF000039B50B1012204A9184606F084FEE0B1DE
:104D0000DAF8003002225A74DDE7DAF800305A7C13
:104D1000002AD8D1F6E71348FEF716FAD8F8003083
:104D200083420AD196E80F008BE80F003B782B44B2
:104D300004330FCB86E80F005AE70023A9F80030B0
:104D40003B708FE7C4200020A11900204C080020F0
:104D5000A319002044080020F4200020BC200020DB
:104D600006210020DC200020B02000204808002080
:104D7000CC200020014804F00DBF00BF200100201E
:104D8000B8220C4BF0B502FB0032002340F24C5528
:104D900053821E461A460849CC18A77827B15F5C93
:104DA000874204BFA67001327133AB42F4D1104682
:104DB000F0BD00BF58080020AE19002008B5064815
:104DC00001F0B2F80122054BFD211A700022997002
:104DD0005A70DA7008BD00BF1D502000A4190020D1
:104DE00030B513780546087A83F0020398421FD144
:104DF000487A537898421BD1887A9378984217D191
:104E0000C87AD378984213D1087B137998420FD18E
:104E1000487B537998420BD1887B9379984207D18C
:104E2000C87BD379984203D10320A840C0B230BDDB
:104E30000B890E4C6BB94B89B3F57F4F09D18B8928
:104E4000FE2B06D12368CA89022023F8022B236097
:104E5000EBE7226801F1080303CB083242F8080CA3
:104E600042F8041C01202260DFE700BFC8090020CF
:104E700010B50E4C0220A17903F072F8A379112B22
:104E800009D1218D638D9942A8BF1946BDE8104014
:104E9000012003F065B8062BF3D03A2B03D1218D06
:104EA00049BA89B2F2E70021F0E700BFC420002030
:104EB00010B5084C01462378012B08D10822A01C0C
:104EC00005F022FA00280CBF2046002010BD00206B
:104ED00010BD00BFA419002008B50146102003F042
:104EE0004DF8044B00219B6803489847BDE80840F3
:104EF000FCF758B918C02000FD4E200010B50C4634
:104F000011462046FFF7DCFD044B1B6813B19B687C
:104F100020469847024B1C6010BD00BF500800207F
:104F2000D00900202DE9F041002306467122134FDD
:104F300002FB03F57C19A078C8B9617002F03AFF52
:104F4000DFF840800E4B98F800102670401A1E685B
:104F5000A0700E4402F02EFF98F800200335821A4C
:104F60003146781905F000FAA078BDE8F0810133E8
:104F70000C2BDDD14FF0FF30BDE8F081AE190020E1
:104F8000D8090020FA1E00202DE9F84315090F2D3D
:104F90000646984602F00F0432D00F2C35D01DB1D2
:104FA0002A46304605F0E0F92A190F2A274605DC83
:104FB000C2F110020021701905F0B0FACCB1DFF88F
:104FC0005880C7F11000D8F8009022464946304476
:104FD00005F0CAF9022C05D10A2D9FBFFF23F372F9
:104FE000FE2333734C44C8F80040BDE8F883102416
:104FF000D6E77DB141463046BDE8F84305F0CBBD6C
:105000000F2C00D110241025CAE7002DEFD1102756
:105010003C46D4E7BDE8F883C809002000232DE909
:10502000F04FB94EB94C87B033702370054602F08B
:105030003DFF02F0D1FEB64AB64B126818600096EA
:1050400001930AB1FFF714FF002D40F03081B249FF
:1050500004A806F0FAFCB14BB14E1A8802933E2A1E
:10506000019B40F25682D3F80090AE4D09F1020345
:105070002B60002394F8008006F1180008F1020864
:1050800009F80830FFF714FF039530B906F108005E
:10509000FFF70EFF002800F00C818025039A09F12C
:1050A0000303136070783278030943EA0213DBB21A
:1050B000990841EA83135BB210F00F0FD9B202F0E6
:1050C0000F0740F0F8807288002A40F0F4801FB982
:1050D00010F0F00F00F00A817027924A136803F86D
:1050E000011B13608E4B8F4A9879112808BF47F037
:1050F000040717F0040F02BF116801F8010B1160DB
:10510000D979402900F0F480FF2900F0F4800129CA
:1051100040F0F48047F00107B3F808A0BAF1000F9F
:1051200040F004815A89002A40F000819A89002ABF
:1051300040F0FC80DA89002A40F0F8801A8A002AC0
:1051400040F0F4805A8A002A40F0F0809A8A002ABF
:1051500040F0EC80DB8A002B40F0E88045F0400511
:10516000DFF8BCB1DFF8BCA19BF81830FF2B40F092
:1051700068819BF8192045F0080C022A40F016813E
:10518000BBF81A30002B40F01181BBF81C30002B0B
:1051900040F00C81BBF81E30002B40F00781BBF8BB
:1051A0002030002B40F00281BBF82230002B40F071
:1051B000FD80BBF82430002B40F0F8809BF82630AF
:1051C000002B40F0F380DAF800309BF8272045F000
:1051D0000B0503F8012BCAF800302823009A504829
:1051E00013708379112B4F4B33D1018D0A0A42EA98
:1051F00001224FF2B00192B222F00F0E1FFA8EFE82
:105200008E4540F05F81B0F82AC04FEA1C2141EA88
:105210000C2121F00F0189B2714540F05381039AAE
:105220001168F3220A70028D0231160A428D120AA9
:1052300002EB061202F5AA6201F8012C039A116032
:10524000374AD18D1A6822F8021B1A603022009961
:105250000A70019A1B68116822785B1A8F540A44FD
:105260005570237004A9102002F088FE2E4B1B6895
:10527000984730EA200028BF1520009A029B177833
:105280001B882578C0F17D06DA1B711B8A4240F32A
:105290000782C0F1780993FBF9F502F0C5FB0138EC
:1052A0008542C0F25D81002007B0BDE8F08F29463D
:1052B000CEE60546F6E61B4A7FB910F0F00F0CD19A
:1052C000116823F03F0303430B70154B03315B88D8
:1052D000682721F8023C116004E711481368006850
:1052E0006027186003F8041B1360FBE67827F9E6D3
:1052F00047F0020710E747F003070DE7106800F8D2
:10530000011B106008E700BFFB1E0020FA1E0020F2
:1053100050080020D8090020A4C42000B02000209C
:10532000C4200020C8090020D0BF20008648FFF715
:10533000BFFD864B186078B1427819F80830824971
:1053400043EA021309F80830814A0420FFF748FDB8
:1053500060F03F00C5B203E748F2FE039A450ED164
:105360007C494B8B5BB98B8B4BB9CB8B3BB9784A68
:1053700008310420FFF734FD0543EDB2F0E6764B2B
:10538000DFF8C4C11A689A4696460CF1100B6346C2
:1053900003CB5B45CEF80000CEF804109C460EF11E
:1053A000080EF4D11032CAF80020D9E6694B598BA7
:1053B00091BB998B81BBD98BB9B9198CA9B9598C7F
:1053C00099B993F8241081B9DAF8001045F00A056C
:1053D000084600F8012B33F8252F043121F8032C5F
:1053E0009B788370CAF80010F7E65A4BD98B99B9AD
:1053F000198C89B993F8221071B9DAF8001045F0C8
:105400000905084600F8012B53F8232F063141F80F
:10541000052C1B790371E5E7DAF80020DFF83CE1A1
:1054200015460EF11008734603CB434528606960AA
:105430009E4605F10805F6D11032CAF800206546EF
:10544000CBE60BF11800FFF733FD404B186080B13D
:105450004278002019F8083045F00405134309F894
:10546000083004AA0BF11801FFF7BAFC0543EDB2AE
:10547000B3E648F2FE03BBF818209A420CD1BBF801
:105480001A304BB9BBF81C3033B9BBF81E301BB90E
:1054900004AA0BF11801E7E7DAF80020DFF8BCC036
:1054A00096460CF11008634603CB4345CEF8000046
:1054B000CEF804109C460EF1080EF4D1264B1032A3
:1054C0001A608AE6718D090289B2B1F5704F0BD16D
:1054D000F1211A681170318DA2F80110718D090A3D
:1054E000D17004321A60ABE602F47F42B2F5704F1D
:1054F0001A6807D1F2211170318D090A5170718D2E
:105500005180EEE7F0211170B16A053242F8041CB7
:10551000E8E741221B6825781A706A1CD2B213444E
:1055200006F12807324603CABA4218605960164687
:1055300003F10803F6D1009B009A1B782935283324
:10554000257013708EE600BFCC2000205408002088
:10555000BC200020C4200020C8090020DC2000203E
:105560000023DFF868B12578CBF80030019B2A468C
:105570001F6804353946381D04F06CFF029B514A00
:105580001B88EDB21B0A63F03F033B70029B761B46
:105590001B88DFF834817B70138826F00706591CBE
:1055A0001180FB701A0A009BDFF824A11978BA70E9
:1055B0004144324678192570CAF8006004F0D4FEE0
:1055C000A81980B202F0ECFB02F034FA5F460546FF
:1055D000564600283FF467AE0DF1100A5046FFF71B
:1055E0007BFC284602F05EFA284602F045FADBF81A
:1055F0000030012B3FF457AE043B012B7FF653AE36
:10560000009B29F007001D783368DFF8C8B01D44FF
:1056100005232370019BADB21A68029B30601B8882
:105620001B0A63F01F031370029B1B885370BBF8A7
:1056300000309D4201D3012036E6019A5B1B1068C1
:10564000EA080271326894F800909342B8BF336060
:10565000336808EB05011A464844009304F084FEC1
:10566000009B09EB030080B202F09AFB02F0E2F922
:10567000814600283FF417AE5046FFF72DFC484600
:1056800002F010FA484602F0F7F933681D443B680F
:10569000ADB2012B3FF407AE043B012BC7D802E6A5
:1056A000019B094918683944284404F05DFE029BB7
:1056B00018882844C01B80B202F072FB04A8FFF7D0
:1056C0000BFCB8E7CC130020C4200020D009002038
:1056D000D4090020B02000202DE9F84380468946F7
:1056E00017464B4D002A57D02B8A83420AD16B8A2A
:1056F00043B10F2002F04EFC0146284606F0AAF9FD
:10570000002840D1B5F8C83043453ED1B5F8CA307D
:10571000002B3AD00F2002F03DFC01463D4806F038
:1057200099F990B301245FFA84F839464046FFF7AF
:10573000F9FB00281DDA6E8A4EB15CB3364805F0DD
:1057400034F9064618B10020FFF71AFB0646B5F8F3
:10575000CA3043B13CB9314805F027F918B10120EE
:10576000FFF70EFB0644002E0FDD39464046FFF7DB
:10577000D9FB002809DDB82303FB0455AB8A64B2CA
:105780001844A88203E00024CDE74FF0FF34204600
:10579000BDE8F8832646DAE76B8A93B305F1180073
:1057A00005F003F948BB6B8A5BB34FF0FF34B5F8E3
:1057B000CA3043B3194805F0F8F810B10120FFF7DB
:1057C000DFFA631C21D1B5F8CA30002BDFD10124E8
:1057D000B8266643AF19A7F81290A7F810800F20DB
:1057E00002F0D8FB0146384606F02FF906F1180002
:1057F0004021284405F0C7F8C9E73846FFF7C0FA4A
:10580000D1E70024D3E70134E1D00024E0E700BF72
:1058100058080020100900207008002028090020E6
:105820002DE9F04F002787B0DFF820827D4C0F2054
:1058300002F0B0FB02F032FC88F80070277002F032
:10584000CBFA794DA2462860042002F091FB774BF9
:105850002A6800B2186056781378CDF8008046EABE
:10586000032603F0F803C02B07D0E02B00F0F080F4
:10587000B846B9466E4C3E461AE09478D0789AF80D
:105880000030C6F30A0604333A46314640EA0420A3
:105890008AF80030FFF720FFB0F1FF3F804600F0AC
:1058A0007282B8244FF00109624B04FB00342234A9
:1058B0002B689AF800105A5C02F0E000602840F073
:1058C0004582881C18440B445F785B4D4FFA87FB78
:1058D000BBF1000F2860BCBF0130286012F0100F30
:1058E0002B4602F0080140F04E81002940F03A8139
:1058F000296831F8010FA4F801008978E17029685E
:1059000011F8040B8308296003F00F0141F06001D6
:105910002170617803F0300343EA801301F00F0136
:105920000B43637012F00403019305D142490B68E5
:1059300013F8010BA0710B6012F003020BBF3E4A7B
:105940003E4B13689B5C09BF13F8011BE3711360A6
:10595000E1717A06C7F3011340F14681BBF1000FF4
:10596000BDBF314A9AF8001012680021BEBF52181C
:1059700095782909002B40F0218104F10805002BBE
:1059800040F02E8119462E4A0F20D25C03910292DC
:1059900002F000FB03462846029A0399FFF7F4FA47
:1059A00017F0080507F0030207F0040700F027814D
:1059B000AFB9244B1B88ADF81430531E012B06D809
:1059C0001D490B6813F8010B8DF815000B600023BF
:1059D0001D498A5C05A904F11800FFF7D5FA009B60
:1059E000009A1878144900F128031370019B002BCA
:1059F00000F044810B681A7802F0F802F02A40F0B7
:105A00003D811122A2711A7802F0040502F0F3021E
:105A1000F03A032A00F24B81DFE812F01F014C013B
:105A200059016301FA1E0020D8090020CC0900208A
:105A3000C420002058080020C809002065C42000A8
:105A400069C4200056C4200071C42000FB1E002041
:105A500092F804B09478D0789AF80020C6F30A0639
:105A600005328AF8002031465A4640EA0420FFF702
:105A700033FEB0F1FF3F804600F08581B822A74990
:105A80004FF0010902FB0012958A3C46B54234BF33
:105A90000025012502F08EF99AF80020824200F2DA
:105AA000728102F087F99AF800109D4A431A019317
:105AB0001360009B019A93F800A00AEBCB031344F8
:105AC0008C2B00F2608134B1964B04EB0A001B680A
:105AD000194404F049FC002E00F04F814FB1019BA6
