:020000040000FA
:2000000000500020750F00006D0F0000550F0000710F0000710F0000710F0000000000008C
:20002000000000000000000000000000710F0000710F000000000000710F0000710F0000C0
:20004000C5470000710F0000B1FB0000710F0000E53D0000C1420000710F0000710F0000C3
:20006000710F0000D9FB0000710F0000710F0000710F0000710F0000710F0000710F00002C
:20008000710F0000710F0000710F0000710F0000710F0000710F0000710F0000710F000060
:2000A000710F0000710F0000710F0000710F0000710F0000710F0000710F0000710F000040
:2000C000710F000065570000294B1B689B0702D44FF000407047F0B5452183B0002003F0EE
:2000E000DFFC0DF10601022201200FF015F838B901A802210FF03AF84FF0004003B0F0BD02
:200100000DF10601022200200FF006F80028EFD0BDF806301C0A44EA0324A4B2200BADF826
:20012000044011F0CBFB10F07BFF0646C4F30B000F4611F0D3FB0CA3D3E9002304460D46DD
:200140003046394611F030FC02460B462046294611F02AFC11F0D8FE064912F033F812F093
:2001600081F903B0F0BD00BF7B14AE47E17A843F201000200000C84208B51F4B1B68032B12
:200180001BD1431E012B18D81C4A1D4B012812881B8815D0184611F091FB0022194B11F06B
:2001A00003FC0022184B11F0FFFB11F0ADFE174912F008F812F056F908BD4FF0004008BD58
:2001C00010B211F08BFB00220E4B11F0EDFB08A3D3E9002311F0E8FB00220D4B11F030FA5F
:2001E00011F092FE094911F0EDFF12F03BF908BD0000000000A06440281000209E45002095
:200200009C4500200000F03E000059400000C84200004440000000002DE9F041624B1B6811
:20022000F3B10023614C10F0380806462360A38051D1420714D003F047FD5D4D6FF0090779
:20024000286005E003F040FD2B68FB1AC34203D502F09AFF0028F5D0564B1B78DB0704D416
:200260004FF000484046BDE8F0816821012003F017FC06224D4943200EF04EFF05460028CC
:2002800063D0002125786278A37865702270E5782279E37063790846A5706271237103F02D
:2002A000FFFB042E5CD0022E5DD0012EDAD1B4F9040011F013FB3AA3D3E9002311F09EFC98
:2002C00011F022FE3C4911F07DFF12F0CBF880464046BDE8F08103F0F7FC354D6FF00907FD
:2002E000286005E003F0F0FC2B68FB1AC34203D502F04AFF0028F5D02E4B1B78D907AFD595
:200300006821012003F0CCFB284906223B200EF003FF00210546084603F0C2FB002D38D0E6
:2003200027786578A078E17822796379202E67702570E070A1706271237117D0102E22D0C0
:20034000082E23D04FF000088CE7062117480EF00DFF2946284603F0A3FB4FF0004881E7CD
:20036000B4F90000A5E7B4F90200A2E7B4F9000002F034FE104911F025FF12F073F880468A
:200380004046BDE8F081B4F90200F1E7B4F90400EEE7062105480EF0E9FE61E7AFF30080F1
:2003A00000000000006060407810002050100020FC450020BC4500200000C8420000000089
:2003C0002DE9F04F23F0004757EA020493B037D06B4C21F00046A64283460D4629DC9A46E6
:2003E000964625D0A74224DC654CA7427BD0002D89468046CDE9002379DB0024BEF1000F8D
:200400002ED15F4B9F4200F08E805E4B9F4263D0BAF1804F00F0C8835B4B9A4520D1002D3F
:200420001EDB4046494613B0BDE8F04F10F0A0BF68B106F1404606F5801656EA0B0308D15A
:200440000023504C1846214613B0BDE8F08FB742CADD4E4813B0BDE8F04F11F051B8002426
:200460004046494611F040F8BBF1000F19D126B1444B25F040429A4213D1BAF1000FC0F260
:20048000C983002DE0DA06F1404606F5801656EA040300F09D84012CD6D101F1004319465B
:2004A000D2E7ED0F013D54EA050351D0384B9F4274DD03F104739F4240F3F683354B9E42D5
:2004C00051DDBAF1000F51DD2BA3D3E900231046194611F069FAB7E7BAF1000FC0F24A8468
:2004E00040464946B0E7BEF1000F80D0A1E72A4B9F422BDCA3F154739F427FF77EAF3B152E
:20050000A3F2FF33142B40F34B84C3F134032EFA03F202FA03F39E457FF46FAF02F0010270
:20052000C2F102046AE706F1404303F5801353EA0B0385D0174B9E4240F33D83BAF1000F1D
:2005400014DBDDE90034184621467DE7022455E742464B464046494611F072F802460B46F5
:2005600011F04CFB70E7BAF1000FADDB002300241846214668E700BF9C7500883CE4377E12
:200580000000F07F0000F03F0000E03F783401000000E041FFFFEF3FFFFF3F43B6F5801FDA
:2005A0004FF0000205DACE4B11F0FEF96FF034020E46DFF83CE33315C6F31306A3F2FF334A
:2005C00046F07F57764503EB020A47F4401740F32883C44B9E4240F3058400220023CDE944
:2005E0000823CDE90C2300220026BF4B0AF1010ACDE90623A7F580173946DDE90623CDE95D
:200600000A0111F01DF8DDE9062380468946DDE90A0111F017F802460B460020B24911F09F
:20062000EDFA0A4601461346CDE90E1202464946404611F0B9F90A46014600204FF0000BFC
:200640007B1043F0005303F50023CDE9041299190F4606469446584611463B463246CDE9D1
:2006600010BCCDE9020111F09FF902460B464046494610F0E5FFDDE90623804689463046D0
:20068000394610F0DDFF02460B46DDE90A0110F0D7FFDDE9022311F087F902460B46404634
:2006A000494610F0CDFFDDE90E2311F07DF9DDE90478CDE906013A4643463846414611F063
:2006C00073F975A3D3E9002306460F4611F06CF973A3D3E9002310F0B5FF32463B4611F00D
:2006E00063F971A3D3E9002310F0ACFF32463B4611F05AF96EA3D3E9002310F0A3FF3246A9
:200700003B4611F051F96CA3D3E9002310F09AFF32463B4611F048F969A3D3E9002310F060
:2007200091FF3246804689463B463046394611F03BF902460B464046494611F035F9DDE9CE
:20074000022306460F46DDE9040110F07BFFDDE9062311F029F932463B4610F073FFDDE94B
:2007600002678046894632463B463046394611F01BF900225D4BCDE90A0110F063FF424603
:200780004B4610F05FFFDDE910BC0F46DDE902015A463B46CDE90EBC5E4611F005F9002254
:2007A000CDE90201514B3046394610F049FFDDE90A2310F045FF02460B464046494610F0C2
:2007C0003FFFDDE9042311F0EFF8324680468946DDE906013B4611F0E7F802460B464046AC
:2007E000494610F02FFF8046894602460B46DDE9020110F027FFDDE90EBC33A3D3E90023DA
:200800005846CDE906BC5E460F4611F0CDF8DDE90223CDE904013046394610F011FF024610
:200820000B464046494610F00BFF29A3D3E9002311F0BAF828A3D3E9002380468946304635
:20084000394611F0B1F802460B464046494610F0F9FEDDE90C2310F0F5FE804650468946B7
:2008600011F03CF806460F46DDE9040142464B4610F0E8FEDDE9082310F0E4FE32463B460C
:2008800010F0E0FEDDE906BC324658463B46DA468B4610F0D5FE2DE0EF4E454A287ECA3F0F
:2008A00065DBC9934A86CD3F01411DA96074D13F4D268F515555D53FFFAB6FDBB66DDB3F92
:2008C000033333333333E33F000000E009C7EE3FFD033ADC09C7EE3FF5015B14E02F3EBE94
:2008E0000000404379B60B000000F03F000008408E980300DDE9082310F0A2FEDDE904231D
:2009000010F09EFE02460B464046494610F098FE80468946DDE90012013C54EA05034FF0C8
:20092000000314BFDA4CDB4C0846CDE904340B461446CDE9023400230293DDE902451146A5
:200940002B46224610F07CFE52465B4611F02CF8DDE9002306460F464046494611F024F82A
:2009600002460B463046394610F06CFE8046894622462B4650465946CDE9008911F014F890
:200980000B46024606460F464046494610F05AFEC14B044699420D468A4640F3178101F19F
:2009A0003F4303F5E003034340F0EC81A4A3D3E90023DDE9000110F045FE324680468946BA
:2009C0003B462046294610F03BFE02460B464046494611F079FA002840F0D481A8464FF488
:2009E000801200204FEA2853A3F2FE3342FA03F35344C3F30A52A94DA2F2FF321541C3F329
:200A0000130423EA0501C2F1140B44F48014BAF1000F02460B4644FA0BFB30463946B8BF0B
:200A2000CBF1000B10F00CFE02460B4606460F46DDE9000110F006FE0D464FEA0B5A0024CB
:200A400081A3D3E900232046294610F0ADFF3246804689463B462046294610F0F1FD024679
:200A60000B46DDE9000110F0EBFD79A3D3E9002310F09AFF78A3D3E9002306460F462046E1
:200A8000294610F091FF02460B463046394610F0D9FD06460F4602460B464046494610F0A4
:200AA000D1FD42464B4604460D4610F0C9FD02460B463046394610F0C3FD224680468946A1
:200AC0002B462046294610F06FFF65A3D3E9002306460F4610F068FF63A3D3E9002310F08E
:200AE000AFFD32463B4610F05FFF61A3D3E9002310F0A8FD32463B4610F056FF5EA3D3E960
:200B0000002310F09DFD32463B4610F04DFF5CA3D3E9002310F096FD32463B4610F044FF26
:200B200002460B462046294610F08AFD06460F4602460B462046294610F036FF0022CDE9A4
:200B400000014FF080433046394610F079FD02460B46DDE9000111F051F8424606460F4654
:200B60004B462046294610F01FFF42464B4610F069FD02460B463046394610F061FD22461E
:200B80002B4610F05DFD02460B460020404910F057FD8A44BAF5801FC0F236815146DDE912
:200BA000042310F001FF4FE4424640464B46494610F0FAFE48E4BAF1000FBFF6D7ACDDE9D1
:200BC0000034184604F1004319463DE4344B21F00048984540F3F380324B0B4403430CD181
:200BE00032463B4610F02CFD02460B46DDE9000111F056F900283FF4F2AE23A3D3E9002383
:200C0000DDE9040110F0D0FE1FA3D3E9002310F0CBFE19E402460B4600201D4910F0EEFFC8
:200C20002FE400220023CDE90823CDE90C230022174B0026CDE90623DEE400BFAFF300806A
:200C4000FE822B654715973C00000000432EE63FEF39FAFE422EE63F396CA80C615C20BE16
:200C6000D0A4BE726937663EF16BD2C541BDBB3E2CDE25AF6A56113F93BDBE166CC1663FBE
:200C80003E5555555555C53F59F3F8C21F6EA5010000F03F0000F0BFFFFF8F40FFFF0F0078
:200CA000FFCB904000346F3F6B4B9E427FF75BAC6A4B9E423FF705AC0022684B10F0C0FC98
:200CC00057A3D3E9002306460F4610F06DFE56A3D3E90023804689463046394610F064FE6B
:200CE000002282468B465E4B3046394610F05CFE02460B464EA1D1E9000110F0A1FC3246E9
:200D00003B4610F051FE02460B460020554910F097FC3246CDE902013B463046394610F072
:200D200043FE02460B46DDE9020110F03DFE42A3D3E9002310F038FE02460B46504659460D
:200D400010F07EFC02460B4606460F464046494610F078FC002042464B4682468B4610F084
:200D60006FFC02460B463046394610F069FC80468946CFE542464B460020384910F03EFFD5
:200D8000FFF762BB2EA3D3E90023DDE9040110F00BFE2BA3D3E9002310F006FEFFF754BB06
:200DA000BEF1000F7FF45BABC3F1140347FA03F202FA03F39F422BD07446FFF726BB294B28
:200DC00098453FF70CAEDDE902239246934636E602460B4610F034FC02460B4610F00EFF1F
:200DE000FFF732BB18A3D3E90023CDE9082318A3D3E90023CDE90C2300221B4B4FF48026A5
:200E0000CDE90623FFF7F8BB5A4600F031F8C6E602F00102C2F10204FFF7F7BAAFF300806E
:200E2000000000604715F73F44DF5DF80BAE543E555555555555D53FFE822B654715F73F49
:200E40009C7500883CE4377E0000004003B8E23F06D0CF43EBFD4C3EFEFFEF3F0000F03F54
:200E60000000D03F0000E03F0000F83F00000000F8B5C1F30A5604460D460B4617460EBB38
:200E800021F000430343864625D000222E4B10F08BFD2E4A044697420D460B462ADBC1F3DC
:200EA0000A56363E40F2FE723E44964228DC002E12DD23F0FF4323F4E00343EA0655204604
:200EC0002946F8BD40F2FF729642EBD102460B4610F0B8FBF8BDF8BD16F1350F1DDA4CF281
:200EE00050339F420CDC14A1D1E9000122462B4610F09AFB10A3D3E9002310F055FDF8BD2F
:200F000022460FA1D1E900012B4610F08DFB0CA3D3E9002310F048FDF8BD23F0FF4323F411
:200F2000E003363643EA0655204629460022084B10F03AFDF8BD00BF59F3F8C21F6EA501AC
:200F40009C7500883CE4377E00005043B03CFFFF0000903C044B1A68B2F5806F03D01B681D
:200F60009B0500D4FEE7704728ED00E0FEE700BFFEE700BF08B50BF0ADF80F4B0F4A93423F
:200F80000CD2D843104420F0030004300C4A184452F8041B43F8041B8342F9D109480A4915
:200FA0004FF000028842B8BF40F8042BFADB01F0D3FAFFF7CFFF08BD00000020EA080020FA
:200FC000D9390100F0080020804E0020012210B5064C074B616807481A7005F0E1F8216873
:200FE0000548BDE8104005F0DBB800BFE4450020B44500202C090020340900202DE9F0410D
:20100000048886B00646002C4FD0B4F5F87F25D1A74C0D4623788B4200F0EA80A54F3B78B2
:20102000AB4200F00D81DFF8AC8298F80030AB4200F0D380882D00F0CB802378AB4213D0F5
:201040003B78AB4213D098F80030AB420FD04FF4F8730120338006B0BDE8F08100230320ED
:20106000338006B0BDE8F081934B9A42E8D1934805F09EF8002840F08E800127904C914DD0
:20108000022001F03BFC2B6998472378012B00F0BB80002B00F0BE80022B00F00381022085
:2010A00001F02CFC2B6998476CE0874B01219B688120984701250A201E27844B844A8049E6
:2010C000157055700C701F601C72586005F006FB784B187005F002FBFD237E4A7E49107023
:2010E00002A8ADF80830ADF80A40ADF80C40ADF80E40ADF81040ADF81240ADF81440ADF80C
:20110000164005F0DDFF2A46214602A805F06AFE41F6FF614FF409424CF6AB5302A8ADF816
:201120000810ADF81420ADF81630ADF80A40ADF80C40ADF80E40ADF81040ADF8124005F01F
:2011400029FE664B224618602146204608F0BEF94BF60B13038201F07BF9614B61491A7A28
:20116000184640321A7201F093F95F495F4801F08FF95F495F4801F08BF95F4802F0CEFEA5
:20118000FFF724FF5D48802105F0BEF94FF4F873012033805FE708F01BFDB03005F0D8F9C6
:2011A000044602F047FD803C241A06F043FA06F0DBFE10B1437C012B61D0404804F0F8FF63
:2011C00000283FF45AAF0A213C4804F0E9FF54E74A4B9A427FF431AF49E73D4B0192197845
:2011E0005B780120194227D001F088FB019A21E7314B9A427FF412AF0192FFF7E7FE012077
:2012000001F086FB019A09E73D4B3548DB6D9847002323703B4804F0CBFF00BB002F7FF451
:201220003EAF2378022B7FF43AAF022001F070FB6B6900209847A5E701F06AFB019AF9E6F0
:20124000DFF888803048D8F80010019204F0A8FFD8F804102B4804F0A3FF019AE3E6DFF801
:201260006C802848D8F8041004F09AFF98F80830012BD3D102232370002FD6D00FE7002C5A
:201280009BDB0F4C2378022B01D00027F7E61E4804F08EFF08B90B4DC3E70027094DFFF7C3
:2012A00095FEBBE7184804F083FF0028B6D0F6E77C4E0020B24500200C3501003C090020F0
:2012C000B4450020443701004C350100E4450020E0450020B34500207C470020280900201D
:2012E00050040020243001003430010074040020483001002C040020583001001809002095
:20130000FC3101002C090020340900204FF0FF332DE9F04184B00E4617460393284C10B185
:2013200003A9236A9847274B01205D68A84780460220A847039B05465A1CD4F8041117D050
:201340008B4215D0D4F8B42093422BD0D4F890106369304698471C4B1D68284611F04CFC3B
:2013600029460246E36C3046984704B0BDE8F081E36930469847C5EB451305EB830543469E
:201380006D11124A00958021384604F057FA384611F032FCE36C024639463046984704B0AE
:2013A000BDE8F08119463046E3699847C5EB451305EB83056D1143460095054AE3E700BF23
:2013C000FC3101004C3501002804002074300100B03001004FF0FF3370B584B00D46164612
:2013E0000393204CF0B103A9236A9847039BD4F804115A1C18D08B4216D0D4F8B42093422D
:2014000029D0D4F89010636928469847164B1E68304611F0F1FB31460246E36C28469847A9
:2014200004B070BDD4F80411E369284698470F490F4A0B7A03C9019000913046802104F022
:20144000FDF9304611F0D8FBE36C024631462846984704B070BD19462846E36998470349CC
:20146000044AE6E7FC31010028040020E4450020102F0100482F01004FF0FF3370B584B00C
:201480000D4616460393204CF0B103A9236A9847039BD4F804115A1C18D08B4216D0D4F886
:2014A000B420934228D0D4F89010636928469847164B1E68304611F09FFB31460246E36C00
:2014C0002846984704B070BDD4F80411E369284698470F490F4A0B784978304600918021C7
:2014E00004F0ACF9304611F087FBE36C024631462846984704B070BD19462846E369984726
:201500000349054AE7E700BFFC31010028040020E0450020C02F0100E42F01002DE9F04F8B
:2015200000248DB00DF1300BDFF87C914BF8144D05919246D9F858705A4652498046B84782
:2015400000282AD00F2867DD5A464F4940462646B847002829D105465A4640464B49B8479F
:20156000002840D163B2002B6ADD610644BF484B1E72E20648BF464B4FF0000248BF1860DE
:20158000A30648BF424B434848BF5D60424B197805F048F90DB0BDE8F08F044606465A4654
:2015A00039494046B8470028D5D00F284FF00005D2DC0246079908A8089509950A950B951C
:2015C00011F07EF908A811F0FBF8A0F10A02322A054602D844F02004BEE75A4640462B493A
:2015E000B84768B380240F2801DD0020BAE700230246079908A8089309930A930B9311F029
:201600005FF908A811F0DCF8244BA0F11E029A4216D844F01004A5E70246079908A80894FB
:2016200009940A940B9411F04BF908A811F0C8F8012823D0A04226460CBF40248024AEE748
:20164000059CD9F81430D9F87810204698473C211E22134B50468DE80E000A23114A8021F9
:2016600004F0ECF8504611F0C7FAD9F84C3002465146204698470DB0BDE8F08F0646402438
:201680008DE700BF742F01007C2F0100882F0100E445002098040020B2450020625101003F
:2016A00080510100942F0100FC3101002DE9F04F00248DB00CAD444F45F8144D8B4692461D
:2016C000BE6D2A4641498046B047F8B10F2841DD2A4640463E49B047002850D00F284FF0F8
:2016E00000031EDD184662B2002A48DDE20713D404F002040CB1374B5870374B0022197825
:20170000364805F08FF80DB0BDE8F08F0446DFE70F2857DD2046012404F002042D4A1370F4
:20172000E8E70DF12009002502460799484608950593C9F80450C9F80850C9F80C5011F097
:20174000BFF8484611F03CF8C0B2059BB8B144F00204C8E70DF12009024607994846089472
:20176000C9F80440C9F80840C9F80C4011F0A8F8484611F025F8C3B2D3B98024A8E77B69E9
:20178000B96F584698470123FF2280218DE80C0002925046124A04F051F8504611F02CFABD
:2017A000FB6C02465146584698470DB0BDE8F08F2A46404606490593B047059B0028A7D171
:2017C0000446ABE70124AEE7FC310100F82F01001C300100E0450020B345002098040020B7
:2017E00000300100014B1860704700BF8C0A002001238079013803FA00F0C0B2704700BF9D
:201800002DE9F04F038887B00446B3B1B3F5AD7F0DD1AC4B1B788B421AD0882900F084806B
:201820004FF4AD730120238007B0BDE8F08F00230320238007B0BDE8F08FA349A34800F01B
:2018400027FE00F0BDF943F216300CF01DFFE7E700229F4B9F4D1B782A709907E0D59E4BF9
:20186000DFF8A0829D4F1A88D8F8001038460DF0DFF806462870002859D1BB79013B032BDB
:2018800069D97B6823F07F4323F0FF03002B51D1C3232B70388900F027FADFF84C92C9F823
:2018A000000040B1C66AD0F830A000F0B7F916B150468A49B04700202E78C9F80000002EF3
:2018C000AED0C22E00F0B880DFF83CB2DFF83CA2834E00F0A3F92A78C32A00F0A980BF2A0A
:2018E00088BFA0224FF0020188BF2A703B897B480CF0E6FE3568284611F07EF9294602461B
:2019000076480DF0FFFBD8F800509BF80030294672483AF803600CF0E1FE314683B22A467A
:2019200070480DF065F87BE700F0F2F978E76E4B1868C6E77B79032BACD1DFF8CCB1DFF849
:20194000CCA19BF80030AAF120003AF803103A8900F09AFA9EE7DFF8B0B1DFF8B0A19BF898
:201960000030AAF120013AF80320388900F032F9DFF87491C9F80000002800F09D808022D6
:201980007B79039604960596ADF80A20002B56D13B894522022155480CF092FEBA7A002A8F
:2019A00040F0858004AB009300220DF10A0303A94A480DF051FB40B1BDF80A30049A802BD3
:2019C00028BF80230592ADF80A30494BD3F800A0BAF1000F65D0D9F80020444E05A8009059
:2019E000BDF80A30743231463C48D047002847D02B788BB9BB7D1A0740F18A8096F90630C1
:201A0000002BC0F28580B37D1B0700F18180A122334E384B2A7033602E78002E40F0928096
:201A2000D9F8000000283FF4FBAE00F00DF9F7E6002203212A7059E700F0F0F8F0E60CF034
:201A400037FE45220346012128480CF039FEA5E7049B9A4200F082800132039975D00122AC
:201A6000BDF80A3021480DF015FBBDF80A20B6F89E30934204D9D6F8A0101C480DF042FBD8
:201A80002B78002BC8D1D9F80060184806F136010CF024FE80B2B0860028BDD1C1232B7065
:201AA000BAE7A1220E4E144B2A703360B4E713490E480DF00BFA75E7A322094E104B2A701E
:201AC000336006E77E4E002008330100D00400206C4B0020DB45002074470020440900200B
:201AE000280700208C470020900A0020E80900208C0A00201C3301003C3301004F090020EB
:201B000050330100784B0020C9450020AC47002097F91530059A002B9ADB002AB3D0013229
:201B200018BF01228023002120480DF0B3FAB6F89E20D6F8A010802A28BF80221B480DF058
:201B4000E1FA9DE7D9F80000BBE6B6F89E20BDF80A309A4294BF0022012283E7B6F89E101F
:201B60008A4207D382230F221149B3710F480DF0C9FA85E7BDF80A308A1A9A4294BF002204
:201B80000122039909480DF085FA0499B6F89E30BDF80A205B1AD6F8A0009A42014428BFD6
:201BA0001A4602480DF0AEFA6AE700BFE80900202C3301000021014804F098BDA8040020D6
:201BC000024A034B12681A60704700BF84160020940A0020F8B507460E480D46164604F096
:201BE000A3FF044698B10023878003762968A8686F68EA68C4F81A10C4F822002146C4F85C
:201C00001E70C4F826200448668504F003FF2046F8BD00BFB8040020980A002070B110B5A9
:201C20000446083004F0AAFC2146054804F040FF2146BDE81040034804F094BF704700BF3D
:201C4000980A0020B80400202DE9F041044600F11A063046A38E04F13602618D0CF0C8FEC0
:201C600094F83650C5F3011595B9237E032B14D82BB3E3685B00E360184D194B2E681B68D2
:201C800004F108002B6004F053FC2E60BDE8F0812046BDE8F041FFF7C1BF3046618DE66A6F
:201CA000276B00F061F82046FFF7B8FF2EB1294638463346BDE8F0411847BDE8F08103F0B3
:201CC00061FC084BA3FB0023DB0903EB4303A0EB831303F28113E360CEE700BF8416002060
:201CE000940A0020ABAAAAAA10B50446074804F08FFE48B18388A34203D106E08388A3420B
:201D000002D000680028F9D110BD10BD980A002010B50C4804F07CFE90B1044601E02468BC
:201D200074B104F1080004F00DFC0028F7D0237E204601332376FFF787FF2468002CF0D1CC
:201D400010BD00BF980A002010B504460448214604F008FF2146BDE81040024804F0A8BE78
:201D6000C4040020800E0020F8B505460E480E4604F04EFE0446A0B100271022294604F193
:201D8000180010F06DFD10B9238DB34204D02468002CF2D13846F8BD2046FFF7D5FF013769
:201DA000F5E70746F6E700BF800E00202DE9F843054618480E4691461F4604F029FE0446BF
:201DC00030B34FF0000801E02468F4B11022294604F1180010F044FD0028F5D1238DB34245
:201DE000F2D194F82A30BB42EED13A46494604F12B0010F035FD0028E6D12046FFF7A4FF3F
:201E0000246808F10108002CE0D14046BDE8F8838046FAE7800E00202DE9F843054619485F
:201E20008846174604F0F4FD044640B34FF0000909E01022294610F013FD10B9238D434572
:201E400005D02468C4B104F11800002DF1D1261DBE4209D0304610F0CFFE39460246304614
:201E600010F0FEFC0028ECD12046FFF76DFF246809F10109002CE6D14846BDE8F8838146D3
:201E8000FAE700BF800E00202DE9F041054613480E46174604F0BCFD0446E8B14FF000087F
:201EA00001E02468ACB11022294604F1180010F0D7FC0028F5D1238DB342F2D1A38EBB4253
:201EC000EFD12046FFF740FF246808F10108002CE9D14046BDE8F0818046FAE7800E002042
:201EE0002DE9F0474468DAB0804620460E4610F083FE0546214603A8132210F0FBFE122D94
:201F000007DC36B103AB3146C5F11302581910F0F1FE002708A83B46452201218DF81F70B2
:201F20000CF0CEFB3B460122394631A80CF0C8FB03A931A80DF038F803A810F05DFE06461D
:201F4000334804F065FD044600285DD0DFF8C4900BE007DA98F80830DB0603D5A3191B7949
:201F60002F2B08D02468002C4ED0251D284610F043FE8642EDD12946324603A810F06AFEE8
:201F80000028EFD10CF094FB228D04F11801FFF721FE05460028E5D0A26B89FB0231D31726
:201FA000C3EBE10303EB8303B2EB830308BF8DF8253082888023A2868288D8F810A0ADF853
:201FC0002820009700F1740208A931A8D0479DF92630002B05DBA16B08A84B1CA3630DF0FD
:201FE00033F894F82A2004F12B0108A80CF06EFF05F1360108A80CF071FBA8862846FFF7CF
:2020000023FE2468002CB0D15AB0BDE8F08700BF800E0020676666660021FFF761BF00BF44
:202020008B79012B00D0704792F90630002BFADB2DE9F04FCB7C83B05B060C4603D54B6E15
:2020400023B1012B48D003B0BDE8F08F2E4B2F481B78D1F860B01F5A154639465A462038EA
:20206000E66D94F80A80FFF7D7FE294804F05CFD04F10B093346044600283BD0122EC4BFAC
:20208000132633464FF0000A324659460430019310F016FC019B04F11806E2181D4B82F8C9
:2020A00004A00FCB86E80F0042464946278584F82A8004F12B0010F003FC2146A4F834A046
:2020C000154804F0A7FC2846A16B4B1CA36303B0BDE8F04F0CF0B8BF0B4A0C4B1278A3F151
:2020E0002000995AA37A04F10B0203B0BDE8F04FFFF75CBEA323284610220849AB7103B081
:20210000BDE8F04F0CF0FEBFC9450020AC470020C40400208C470020800E002074330100B0
:202120002DE9F04F83B0019100929846DDF8309000F0DCF904F06CFC002800F0B4800025EE
:20214000D9F800B007462C465E46B44208D3454512D24FF03C02009B5A55D9F8006001352E
:20216000631CB34208D3454506D24FF02F02009B5A55D9F800600135D7F804B00234584636
:2021800010F03AFD04EB000AB2454FD801D3454562D3FE680AF10104BEB13378ABB1D9F8B1
:2021A00000B05C4508D3454506D23B23009A5355FE68D9F800B00135304610F01DFD0AF149
:2021C000020A0AEB00045C450FD8454504D9D9F80030621B9A425BD83F68002F41D0BCB922
:2021E000D9F80060B442BBD3B1E70098ABEB0A0308F10101002BACBFF318331C491B28449C
:202200002C4A03F01BFB0544454541D83F6847B3D9F80060A64207D8A84505D92C23009A06
:202220005355D9F80060013501348EE70098361B08F10101002EACBF0BEB06030BF100036A
:20224000491B28441B4A03F0F9FA0544454509D2D9F800309A459CD33E23009A535501358D
:2022600097E70027A5B944B9EFB1D9F800304344C9F8003003B0BDE8F08F019C82212046C8
:202280000CF01EFE20460F220B490CF03BFFEBE79DE812002A4620460CF034FF20462821E8
:2022A0000CF02AFEE0E74FF0FF33C9F8003003B0BDE8F08F903301002C33010070B5028827
:2022C0000546C82A0FD0D82A11D01AB100232B80032070BD1F4B8521186804F0A3FAC8230A
:2022E0002B80012070BD852907D0012070BD882917D0D8232B80012070BD174804F088FBB0
:20230000044618B9F5E72468002CF2D0E369002BF9D0A1680029F6D004F10C0004F0F4F833
:20232000F1E70D4804F074FB044618B9E1E72468002CDED0A368002BF9D004F10C06304648
:2023400004F000F90028F2D0E3699847304604F0E5F8ECE784160020780F00202DE9F04FAB
:20236000002487B006AD384E45F8044D0291F468294691469A468046A0470546334804F0BF
:2023800047FB002835D00446DDF814B009E006DD227AD30603D51BF800202F2A07D02468E3
:2023A0003CB36768384610F027FC8542EFD102465946384610F04EFC0028F0D10390326971
:2023C0004046904710F0010F039B1CD1850728D5656935B3109B4A4600930299534640463E
:2023E000A847237A5B0612D40123184607B0BDE8F08F73690298D6F8881098470023184671
:2024000007B0BDE8F08F2569002DE3D1DEE7336E2046029A414698470123184607B0BDE8C6
:20242000F08F410702D5A569002DD3D1020702D5E569002DCED102987269D6F88C100393B0
:202440009047039BDBE700BFFC3101007C0F002038B50A4B1C7804B138BD0122084D094864
:202460001A7004F0D1FAAB68074898476B6898472146BDE83840054804F038B9B545002050
:20248000FC3101007C0F00205D230000F404002070B5044611486160214604F0BBFA94F9A5
:2024A0000830002B00DB70BD216ACB69002BFAD08B68002BF7D00A4D0A4804F0ABFA284668
:2024C00004F0E8F90028EED0074E206A346881680C30356004F018F83460E4E77C0F0020FE
:2024E000F4040020780F002084160020004870477C0F0020F0B5002706463C463D4683B069
:20250000304600F0FBF90195019B9C4206DD00BF019B01330193019B9C42F8DC304600F097
:20252000F7F90195019BC4F5C8749C4206DD00BF019B01330193019BA342F8DB0137B7F568
:20254000487F06D0B7F5C87FCCBFC7F548743C46D6E703B0F0BD00BF2DE9F041744C86B04D
:202560002368012173485B6898470122236811461B68704898470AF02DF802F03BF902F0FB
:20258000D3F800F0F5FF02F00BF900F0ADF9012369496A486A4A03600B6018461368FFF727
:2025A000A9FF0AF01BF801F091FB01F0F7FA04F077F901F05BFC04F0BDF841F2342002F039
:2025C000E7FF01F049FE04F00DFA5E4801F0A6FC4BF2016200215C4803F00AF95B4801F0BA
:2025E0009DFC0AF06BF85A4C5A4D10F0040F14BF27462F460AF06AF801280CBF26462E46A0
:202600000AF05CF810F0020F14BFA046A8460AF055F810F0080F08BF2C4632464346009488
:2026200039464D4803F0E4F800214C4804F05EF803F01AFE03F0CCFD0220FFF75BFF4848EF
:2026400003F0D6F8474B484C186801F067FC474803F0CEF8464B186801F060FC454803F099
:20266000C7F82168444803F0C3F8E469A04720B1A0470146414803F0BBF800260A2001F035
:2026800045FC0AF0DDFC04A808213D4D3D4F039601F07CFC9DF816209DF8174004AB03CB05
:2026A00044EA0224D7F82C802860696002204AF6CD31C04721460320C04719210120C047A0
:2026C000082204A97B6B0B209847BB6A03A90120984703992C4803F08BF82C4B21462C488A
:2026E0001C8003F085F82B4B6A6829685A6019600AF07AF83146284803F0F8FF0220FFF76D
:20270000F9FE3146254803F0F1FF254803F03CFD01F0BAFB0120FFF7EDFE04F025F804465F
:2027200001F0E6FB14F0FF0FF7D101F0CBFEF4E7D801001000400340080009400C40094006
:202740002C200940A8330100CC330100E4330100A0330100A4330100F8330100E005002013
:202760002C340100CC3601006837010034340100443701003C3401009033010044340100C2
:20278000544E00206C35010068340100984500207C3401007C470020580600200405002000
:2027A000082F01002DE9F04104880646772C30D07E2C27D024B1002333800320BDE8F0819A
:2027C00003F08CFF2F4F304B304D3A6818702C60002A55D02346A0462D4C04F803809368BE
:2027E0000021802098472B68013357F823202B60002AF2D1DBB2274A137077233380012079
:20280000BDE8F081204B1B788B421CD00120BDE8F081DFF880801D4D98F800201E4F002333
:202820003B602B60002AE8D0194CE256002A18DB2B6898F80020013393422B60F5DB3B688C
:20284000002BECD1D9E7114D114CDFF84880124F2B683A68E15C013201F07F01E1543A6030
:20286000E7E7084A084952F823200978002003F0D9FF0028ECD17E2333800120BDE8F0817E
:202880001346B8E7140500207C4E0020840F0020F0450020B6450020800F002010B40E4B2E
:2028A0001C78B4B10D4A1368984212D00432002303E052F8041B884202D00133A342F8D16E
:2028C00007490848CA5C62F07F02CA5410BC03F0D5BF0023F4E700BFB645002014050020DD
:2028E000F04500200405002008B500F01BF80022014B1A7008BD00BFB7450020034A13782A
:2029000003431846137000F029B800BFB7450020034A137823EA00031846137000F01EB855
:20292000B74500200A4B1A6802B17047012210B5084C1A6023680A20DB6B984723680F20F0
:20294000DB6B98474FF40442034B1A6010BD00BF880F0020B4010010A02002404FF404426E
:20296000084B094908701A60C20744BF4FF4806243F8102C830703D54FF40042034B1A60A9
:20298000704700BFA0200240B845002090200240813801289ABF024B18680020704700BF12
:2029A000A40F00200322024B02481A60FFF776BFA40F00209434010010B5044682B077216E
:2029C000002001F06DF84CB98DF8074001220DF10701F4200CF0AEFB02B010BD25238DF882
:2029E0000730F3E730B5802885B016D0812810D11D4C206878B151B30120FFF7DDFF002360
:202A00001A4A03211A4803F069FC0220206005B030BD154B186805B030BD0125124C772192
:202A20000020256001F03CF81822124988200CF073FBB62304A901F8013D2A46E0200CF0FC
:202A400079FB0020FFF7B8FF206805B030BD0848019103F087FC01990846FFF7ADFF012305
:202A60001846236005B030BDA40F0020A5290000B00F00208C0F00202DE9F843534B1B6826
:202A8000032B40F09F80431E012B00F29B8000234F4D772104462B601846AB8001F000F881
:202AA00029460622F7200CF037FB002800F082802B794849E8786A791B0143EA003308889C
:202AC00043EA1213C0EB131202FB02F2B1F904604000B1F902701213C0EBD30306FB02F2DE
:202AE00007FB03F3921302EBE3224FEA620EAEF57A4E4FEAAE0707FB07F7B1F90830B1F9B9
:202B00000A6078130EFB03F300FB06F05B1003EBE0039B14C88803F5004300FB03F38A617E
:202B2000D81395F800C095F80180AE783AD0B1F90E90B1F910300EFB09FEFF124FEA4E0E37
:202B400003FB07EEB1F90C70330943EA08133F0407EBAE0743EA0C331F4D03EB273305FBCE
:202B600003F505F1434505F5A005002DB3BFB5FBF0F36D00B5FBF0F35B00D80800FB00F5E3
:202B8000B1F91400B1F916609F086D0B00FB07F006FB05F5B1F91210401300EB25300844A0
:202BA00003EB2010012C03D102EB820080300012BDE8F883284606210CF0D8FA4FF00040C3
:202BC000BDE8F8834FF00040BDE8F883A40F0020A80F00208C0F0020CBF3FFFF8138012833
:202BE0009ABF024B18680020704700BFD80F00200322024B02481A60FFF750BED80F0020D1
:202C0000B434010010B504464421002000F048FF002C0CBF002410240222044B10461C804C
:202C20001946BDE810400CF085BA00BF9A45002010B5802882B017D0812811D11E4C206844
:202C400080B100292AD00120FFF7DCFF00231B4A24211B4803F042FB0220206002B010BDAD
:202C6000154B186802B010BD164C012023689B6B984723684FF480419B69012098472368E4
:202C80004FF08041DB69012098470020FFF7BAFF01231846084A136002B010BD0848019179
:202CA00003F060FB01990846FFF7ACFF01231846236002B010BD00BFD80F0020F12B0000D7
:202CC000E00F0020B401001038B5344B1B68032B0BD1820709D003280FD0012809D002288F
:202CE00003D12F4B1B68184638BD4FF00043184638BD2C4B1B68184638BD2B4D4421044667
:202D0000002000F0CDFE2946022204200CF004FAA8B12A88130A43EA02239BB22B805B0456
:202D20000DD5224D0222294601200CF0F5F938B102222046A9180CF0EFF930B900E01B4D5B
:202D40001A4804210CF012FA00202C786B78A978EA7843EA042442EA01220028C5D09008C1
:202D60000FF0DCF94FF074510FF02CFA10490FF029FA0FF077FB0B4B094D1860A0080FF09F
:202D8000CDF94FF074510FF01DFA09490FF01AFA0FF068FB01232860184638BDD80F002086
:202DA000D00F0020DC0F00209A450020D40F002000007A44014B1868704700BF20100020B7
:202DC00070B506460E4C82B045210020256800F067FE76B94FF4865305F002052560ADF81D
:202DE000063002220DF1060101200CF0A3F902B070BD41F2C2020123ADF806202360F0E79C
:202E00002010002000B5452183B0002000F048FE02220DF1060101200CF07EF9BDF9063015
:202E2000002B08DB0023084A1021084803F056FA03B05DF804FB0648FFF730FD0222054B5F
:202E40001A6003B05DF804FB052E000000100020C434010020100020802810B50DD0812852
:202E600009D10C4671B90D4803F07CFA2046FFF7A7FF204610BD002010BD0020FFF7A0FF67
:202E8000002010BD0120FFF79BFF0023044A1021024803F023FA012010BD00BF00100020BB
:202EA000052E0000813801289ABF024B18680020704700BF28100020032170B5124C134AE5
:202EC00023781160CBB1124D4321002000F0E8FD2846042100F002FD00212070084600F041
:202EE000DFFD28886988020A0A4E0B0A0A4D42EA002243EA012332802B8001230748237083
:202F0000BDE87040FFF7CABCB945002028100020241000209E4500209C450020DC34010001
:202F200030B5802883B023D081281DD1244C2068E0B100293BD0234D2B785BB143210020E7
:202F400000F0AEFD002000F0A7FC00212870084600F0A6FD00231C4A03211C4803F0BEF9CE
:202F60000220206003B030BD154B186803B030BD0024174B174A184D20461C604321148069
:202F80002C8000F08DFD0222102302A921F8023D10460CF0CFF80B4B21461870204600F0FD
:202FA0007FFD01231846064A136003B030BD074803F0D8F901231846236003B030BD00BF39
:202FC00028100020B9450020B92E00002C100020241000209C4500209E45002008B5174BC1
:202FE0001B78032B28D8DFE803F01E150C020EF075FC00224FF07D530EF0D6FC0EF084FF24
:2030000008BD0EF06BFC00220D4B0EF0CDFC0EF07BFF08BD0EF062FC00220A4B0EF0C4FC77
:203020000EF072FF08BD0EF059FC0022064B0EF0BBFC0EF069FF08BD002008BDBA450020B2
:203040000000303F0000203F0000103F813801289ABF024B18680020704700BF781000200D
:203060000222024B02481A60FFF718BC78100020F434010010B56821012000F011FD3F23B1
:20308000094C012221466C2023700CF053F84F23214601226B2023700CF04CF8BDE810409C
:2030A0000021084600F0FCBCBE450020802838B50BD0812806D111F03F012DD1294B1B68B0
:2030C000DB043BD4284B186838BD284C072023689B6B984723684FF400519B6907209847E6
:2030E00023684FF08041DB690720984723680C20DB6B984723684FF440729B6A4FF4806176
:203100000C2098474FF4805400221948194B164904601A60086838BD4FF480500124154B6C
:20312000154A114D196010600023144A082114482C6003F0D3F82C60204638BD0D4B104802
:20314000196003F00FF9FFF795FF0E4A136813F00103FBD14FF48050034A05491360086042
:20316000106838BD8020024078100020B4010010A02002404C10002090200240B131000041
:20318000581000200428004010B5084C6821012000F086FC214601223A200BF0BDFF00214A
:2031A000084600F07DFC207810BD00BFBC4500202DE9F041364C236813F0380F29D1354DF9
:2031C00003F03F042E7866B9002C3CD12C70FFF751FFBDE8F04100232F4A05212F4803F0D7
:2031E0007DB8E3B22B70002CF1D02D4FDB43682101203B7000F054FC012229496C200BF032
:2032000099FF0021084600F04BFC264809F0EAF9DFE7254E3278002AD1D00025234F682158
:2032200001203D7000F03CFC394601221C200BF081FF07462946284600F032FC2368002F3D
:20324000BDD03570BBE76821012000F029FC0923134F012239466B203B700BF06BFF3F23AE
:20326000394601226C203B700BF064FF01220F491C202E700BF05EFF394601223A200BF073
:203280004BFF3146304600F00BFCE3B22B70ADE74C100020BD450020613000005810002085
:2032A000BE45002080380100BA450020BB45002008B5034B1B685B689847C0F3804008BD8B
:2032C000B401001028B1012806BF054BD86800207047044B1868C04300F00100704700BFC2
:2032E0007C100020C020024008B100207047034B18686FEA101000F001007047C02002405F
:20330000813801284FF0000000D97047FFF7D0BF8138012801D9002070470420FFF7C8BF43
:20332000802870B514460AD0812807D1E1B9BDE87040184B10461B685B6B184770BD01236A
:20334000144D154993402A680B60936B204698472B6820460021114A1B689847E0B21049D9
:20336000BDE8704001F006BA01230A4D0A4993402A680B60936B204698472B6820461B68EA
:20338000064A002198472B682046BDE870401B6B184700BFB4010010E0200240004007207D
:2033A000BD33000008B50022FFF7BAFF012008BD08B50422FFF7B4FF012008BD38B510B189
:2033C000042814D038BD134C204603F0A9FA0028F8D00421204603F08FFA0F4B1D6815F0B2
:2033E00001050CD100F026FCE560A06038BD4FF08052BDE838404FF4804100F08DBF00F040
:2034000019FCA368C31AE3600448BDE83840FFF745BA00BF7C100020C02002400C3501003F
:20342000024B1868C0F3C000704700BFC02002408138012801D90020704708B5034B0320F3
:203440001B685B689847C0F3804008BDB4010010802810B509D0812805D1134B03201B6881
:20346000E9B95B6B9847012010BD0F4C032023685B6B984708210D4B0D4A1B681160DB6959
:203480004FF4A060984723680A4A1B680021032098470949032001F06DF9012010BD1B6B45
:2034A0009847012010BD00BFB4010010B8010010E020024000200320BD34000008B5074870
:2034C00003F02EFA00B908BD0548FFF7E7F9BDE808404021014803F00FBA00BF8C10002062
:2034E0003435010010B5064C042023685B699847236804205B6B98470128F9D110BD00BF26
:20350000B8010010FFF7EEBF032801D000F012B908B50BF00BFF104B00219B6881209847C7
:203520000E4B00219B68812098470D4B00219B68812098470B4B00219B68812098470A4B43
:2035400000219B68812098474FF48052074B1A60BDE8084000F0EEB894340100C4340100A1
:20356000B4340100DC340100F4340100A020024070B509F02FF80646FFF7B4FF3A4B4FF424
:20358000A0601B68DB6998470121384B384A196013689B07FCD54FF40055364C00F09CF859
:2035A0000BF0BEFE0BF0B2FE334801F0B1F8236819209B6B9847236829469B6919209847D5
:2035C000236818209B6B9847236829469B6918209847236817209B6B9847236829469B6989
:2035E0001720984723681B209B6B9847236829469B691B20984723681E209B6B98472368B9
:203600004FF480419B691E20984723680D20DB6B98471A4A2368156000214FF480729B6AE9
:203620000D209847236802209B6B9847236829469B690220984723680B209B6B98472368C7
:2036400029469B690B20984723681D209B6B9847236829469B691D20984706B170BDBDE89D
:20366000704008F0BBBF00BFB80100102820086028200840B401001038050020A02002403C
:2036800010B5094B09481B685B68984710F00C0F044605D00422064B02201A6008F0A2FFB5
:2036A000B4FA84F0400910BDAC010010002000400428004008B5064B02201B685B6B9847F1
:2036C000012812BF0020034B186800F0010008BDB80100106020084070B5104D02202B6884
:2036E0005B6998472B6802205B6B984701280446F8D12B684FF44070DB699847084B094A42
:203700001C6013689B07FCD5074B0122BDE870401B6806491B680648184700BFB8010010EB
:203720002820086028200840AC010010006CDC0200200040FF22214B10B51A70FFF7BAFF57
:2037400020B100231E491F4A0B6013601E4B4FF440701B681B6A984701211C4B1C4A19601C
:2037600013689B07FCD51B4C082023689B6B984723684FF400519B6908209847236809207E
:203780009B6B984723684FF400519B6909209847236805209B6B984723684FF480419B69F1
:2037A00005209847236806209B6B984723684FF48041BDE810409B6906201847E608002054
:2037C0000428004010040542B80100102820086028200840B40100102DE9F04780462A4BCC
:2037E0000D461B7829495B000B60294A0178294B11601A685406FCD4032202201A6008F075
:20380000F1FE244A1368D807FCD4FFF739FF012D034625D908B30124A146DFF874A01D4F60
:203820006E1E08EB040302E00134A5421AD913F8012BA642CAF80020F6D9C7F800900220D0
:2038400008F0D0FE3B68D907FCD4FFF719FF0134AC42034604D20028E3D10020BDE8F087E7
:20386000002BFAD005230B4C0220236008F0BAFE2368DA07FCD4FFF703FF064A13685B061F
:20388000FCD4BDE8F08700BFBF45002000280040082800400428004010B50C4B0C4C1A780F
:2038A0000C4952000C4B226008601A685206FCD4072202201A6008F095FE074A1368DB0778
:2038C000FCD4BDE81040FFF7DBBE00BFBF4500200028004008280040042800402DE9F04720
:2038E0000646254B0D461B7824495B0043F00103234A0B60146814F04004FBD10B2302206F
:20390000136005F1FF3808F06DFEB8F1000F19DD4FF009091A4FDFF86CA03B68D907FCD406
:20392000FFF7AEFE10B90020BDE8F087DAF80030022033550134C7F80090E4B208F052FED2
:20394000A045EADC05230E4C0220236008F04AFE23461A68D207FCD4FFF792FE0028E2D061
:20396000084B35441B68064A05F8013C13685B06FCD4BDE8F08700BFBF450020002800405B
:2039800004280040082800402DE9F84F0446404E1F4633780D463F495B000B609046017816
:2039A0003D4A3E4B11601A685206FCD4032202201A6008F017FE394A1368DB07FCD4FFF768
:2039C0005FFE012D034622D910B90020BDE8F88F4FF0010BDFF8C0A0DFF8C09025445C4451
:2039E00014F8013B0220CAF80030C9F800B008F0F9FDD9F80030D807FBD4FFF741FEA54241
:203A0000034604D00028EBD10020BDE8F88F002BDBD00B2233781F495B00204C43F0010345
:203A20000B600220226008F0DDFD012F16D00926BB1E194D08EB030908F1FF3A2368D90785
:203A4000FCD4FFF71DFE0028BFD02B6802200AF8013F266008F0C6FDD145EFD105230F4C3D
:203A60000220236008F0BEFD23461A68D207FCD4FFF706FE0028A8D0074B47441B68074A0F
:203A800007F8013C13685B06FCD4BDE8F88F00BFBF450020002800400828004004280040EB
:203AA0002E4B10B504461970FFF704FEB0B12C4B1A78A24218D000222A482B491C700260D1
:203AC0000A601B788BB1012B2BD0BDE81040274B01221B6826491B6826481847FFF7FCFDCB
:203AE0001F4B1A78A242E6D110BD234C4FF4C041236805209B69984723684FF4C0419B6949
:203B000006209847236806220521DB6C19489847236808209B6B9847236809209B6B98470F
:203B2000D3E7154C4FF4C041236808209B69984723684FF4C0419B690920984723680922FF
:203B40000821DB6C0B489847236805209B6B9847236806209B6B9847B7E700BFBF45002017
:203B6000E60800200428004010040542AC010010006CDC0200200040B401001010B5064C2D
:203B8000042023685B699847236804205B6B98470128F9D110BD00BFB801001000200021F6
:203BA000F8B5194A194BC2E900011B6804205B6B9847012801D0FFF7E1FF144B00201B68C7
:203BC000DB6998470121124B124A196013689B07FCD5114A11491368096823F4807323F0C2
:203BE00001030F4C13600B6820460E4998470427312640F2212001220B4D0C490C4B276041
:203C00002E6008601A60F8BDF0080020B801001028200860282008400C000140C801001038
:203C200000000140002100043C000140080001400400244310B40949094A0B681468086825
:203C40008342FAD1DA010023064902EB5462C1E9002310BCD1E90001704700BF08200940A9
:203C60000C200940F008002010B50B490B4A0B68146808688342FAD1DA010023084902EB1E
:203C80005462C1E9002302F067FC00B910BDBDE8104002F033BC00BF082009400C2009404B
:203CA000F008002010B508F095FC034B1C6808B908F094FC204610BD08200940704700BF69
:203CC0000146012000F052B808F086BA2DE9F04108F080FC0124002580464FF480314FF448
:203CE00080701A4E1A4B1B4F32683D601C60186019601368284623219847336820461B6869
:203D000024219847336825211B6802209847124A1249136843F4E02313600D6008F05CFA80
:203D20000F4B1049104A1B6800F50070086014603C601B6914209847B8F1000F01D0BDE851
:203D4000F081BDE8F04108F049BC00BF84010010042009400000244300200940082009401D
:203D6000B00100101C200940A0022443431E012B10B419D9042801D010BC704700231A46AE
:203D800010F004001CBF0E4C216013B101210D4B196012B101220C4B1A600028ECD00122F4
:203DA0000A4B1A6010BC704710F001031CBF084A116010F00202E3D0064C2160E0E700BFFF
:203DC0002020094080022443A0022443C0022443182009401C200940014B1868704700BFF7
:203DE0009410002008B5FFF76FFF184B1860FFF73BFF174B1B686BB9164B1B68E3B9164BE9
:203E00001B6833B100204FF480321449144B08601A6008BD4FF48072114B1A6008F0DCF9EB
:203E200000F205200F4B20F4FF7020F001001860084B1B68002BE2D0002001220A49084B69
:203E400008601A6002F044FDD9E700BF94100020A000244380002443C0002443C0022443CC
:203E6000042009401C20094080022443012203490348044B08601A60704700BF00000840BE
:203E8000FFFF0F00000C0840F8B508F0A3FB124AB0FA80F01368012B0BD001230F4C104DAA
:203EA0001049114A400925600B601360C3070FD4F8BD0E4F094D0A4E0A4C0B49400940F012
:203EC000020017602E6023600B601360C307EFD5BDE8F84008F082BB000C0840000008403E
:203EE000FFFF0F000C0008400401004351E5CC1A012203490348044B08601A60704700BF9C
:203F000000000840FFFF0F000C00084010B50446C0B200F0B5F9204610BD00BF70B5064676
:203F20000024451E04E015F8010F00F0A9F9013430460EF061FEA042F5D80A2000F0A0F9FD
:203F400000F0B2F90128FBD0204670BD70B50446B0B10078C0B1A9B10025661804E014F899
:203F6000010F38B1B44205D000F08AF9631C05F10105F4D100F098F90128FBD0284670BDBA
:203F80000546F7E70D46F5E70546F3E710B40B4B0B4C13F8012FFF2A0DD1A342F9D1094AEF
:203FA00039B11144013801390B78914200F8013FF9D110BC7047044AF2E700BFC7FF0100C7
:203FC000CFFF0100F0120050C8FF010080280BD0812806D141B9084A084B1160084619601E
:203FE0007047064B18687047012303200249034A0860184613607047005009409810002052
:20400000813801289ABF024B18680020704700BF98100020064B1B6833B1012806D0022859
:2040200012BF0023034B1B681846704708F02EBB981000202850094038B50C4D02202B6841
:204040005B6998472B6802205B6B984701280446F8D12B684FF40070DB699847044B054A20
:204060001C6013689B07FCD538BD00BFB801001028200860282008402DE9F04340F2F27537
:20408000DFF8DC8083B0FFF7D7FFD8F800302A4EDB682A4898473368294C5B6915209847FA
:2040A0002368DFF8C090274F23F4FE63D9F8002023F0020323603D60D36B1D2098474FF09E
:2040C000FF334FF000502049D9F8002008600093D2F840901C211D221848C847D8F8002055
:2040E0006023D2F8048019494FF4E1321348C047142140F2011340F2013E154A15481160BC
:204100000268154942F0100202600868134A002818BF734613603D600B6853B11520236865
:20412000326843F050032360136903B0BDE8F043184703B0BDE8F083B0010010001000409A
:20414000381000404410004090200240006CDC02341000402C1000409C10002030100040BB
:20416000D0010010B401001008B5064B02201B685B6B9847012812BF0020034B186800F069
:20418000010008BDB80100106C20084038B50446FFF7EAFF18B1264A13681907FCD4032CD3
:2041A00003D0244B1B6803B138BDFFF7DDFFF0B9214D4FF400702B681B6A9847032C2CD0D3
:2041C00001211E4B1E4A196013689B07FCD51D2000F0BAFA1C2000F0B7FA4FF0FF3000F069
:2041E000B3FABDE838404FF0FF3000F0ADBA154B15481B68DB689847144B15201B685B69F3
:20420000984740F2F270124A1249136823F4FE6323F0020313600860CAE72B684FF4007097
:204220009B6A98472B684FF400701B6B9847C7E7181000409C100020B80100102820086094
:2042400028200840D001001000100040B0010010381000404410004010B508F0BBF9044605
:20426000054800F055FA0022044B1A6004B110BDBDE8104008F0B2B94C0500209C100020B0
:2042800010B50446FFF770FF08B9FFF7F5FE044B2146BDE810401B680248DB69184700BF26
:2042A000D00100100010004008B5FFF75DFF18B1024B1868C0F3C00008BD00BF18100040C9
:2042C00070B5FFF7B9FE40F2F2710D4B0D4A1B68116013F0500F11D00B4C0C4E0C4D06E0A1
:2042E000336828461B6998470A4B1B681BB92368DB06F5D570BDC0B29847EFE770BD00BF30
:20430000401000404410004018100040D0010010001000409C1000202DE9F04740234FF025
:20432000000882B00F461646CDF800800193054608F050F901204FF480714FF48032474B51
:204340004446C3F80080464BDFF85881186019601A60D8F8003020463F211B68013498478F
:20436000042CF6D10024DFF83C81D8F8003020463F219B6801349847032CF6D1394B1B68B4
:20438000FFF7B6FD384802F043FB044630B1A3680BB1032098472468002CF8D16B1C0CD0EC
:2043A0000021324B324A43EA85031960136846F000523A4328461B689847002401272D4E9E
:2043C000DFF8E4903368C9F800409B690720984768460BF0F9F800F085FA00F033FA264858
:2043E00026490368326823F0030303600B68244D23F00F030B6093693820984738462C601C
:204400000BF002F9DFF8A4A01E481F4A1F49204B2C60DFF85080CAF80040076014601D4A72
:204420000C60C9F800401C60D8F800301A491368096823F0030313604B68184803219847A2
:20444000174A33682C60CAF8004017609B6BD8F80020984702B0BDE8F08700BF0000244392
:20446000042009402C200940A0100020001A4442B4010010B8010010001009400810094082
:20448000401009408801044340012243440122430800094024220840D80100100040034018
:2044A00018100940840100100C40094020042243034A136823F00403136030BF704700BF1E
:2044C00010ED00E070B508F085F802F0A1F918B1BDE8704008F082B87E4802F099FA022517
:2044E000044648B1636823B19847854228BF0546EDB22468002CF5D1FFF7E6FB764B044603
:204500001B68002B40F0858002F026F8002840F09380012D00F0C680022DD9D1611E284613
:20452000FFF724FC6B4802F073FA0625044600287BD0A3680BB1022098472369246825EA7C
:204540000305002CF5D1FFF7D3FC6B0705F006046ED4002C40F0A08000F0C4F900200BF0A5
:2045600053F85E495E4A0B685E4823F003030B601368016843F00F0313608B69392098473C
:204580000023594A59491360184613600B6007F093FE062C00F08980554C564D564E2B68D6
:2045A0002368326823F00303236053680321534898474C4B1B689B6B98472B6807F098FFC1
:2045C00000214F4A336811604C485B6801219847012123684B4A43F00303236011602B68BB
:2045E00007F0BAFF0AF0DCFFFFF73EFBFFF780FC384802F00DFA044628B1E36803B198471B
:204600002468002CF9D107F0E9FFBDE8704007F0E5BF3D4B1B681B1A022B38D4A3F28F2389
:20462000002BBFF671AF012332E0FFF761FC06240022344B1A608CE701F096FF0646FFF771
:20464000F9FA361A002E7FF743AFFFF7C5FB00EB4620031BA3F28F23002B2DDB012D31D1B2
:20466000031B082B25D404F580310B1A11EA230138BF01460220FFF779FB244A136823F03C
:204680000403136030BFBDE8704007F0A7BF00239D4228BF1D4637E7124B20461B689B694B
:2046A000984759E704F58031E4E7022007F0D6FF72E704F10801DDE7022DD1D0012D7FF4EC
:2046C00007AFCDE7022D7FF403AF01462846FFF74DFB27E7A0100020800224430010094009
:2046E00008100940B80100104010094020042243242208402C200940D801001000400340DF
:20470000800104430C4009401820094010ED00E00146014802F07EB9A010002001460148C5
:2047200002F0C6B9A010002010B5054802F06CF9BDE81040034B20211B6803201B681847C3
:20474000A010002084010010431C0ED010B5074B04461B684FF4C0421B68002198470022E9
:20476000034B43EA84031A6010BD7047B4010010001A444238B504460D4607F02BFF012305
:204780000549064AA3400B6042F8245000B138BDBDE8384007F022BFE0200240A4100020CE
:2047A0000021064B03F1800243F8041F9342FBD1034B10201B681B69184700BFA01000209F
:2047C000B0010010F8B500240126084B084F1D681D6006FA04F32B42E0B203D057F8243008
:2047E00003B198470134202CF3D1F8BDE0200240A41000200022412300B585B002A8029268
:2048000003930AF0E1FE042007F018FF032810D00321042007F0EAFE042007F00FFF032871
:20482000FAD100901C234FF040520021044807F0FBFC02A80AF01CFF05B05DF804FB00BF2B
:2048400000A00C400022412300B583B068468DE80C000AF0B9FE042007F0F0FE022808D013
:204860000221042007F0C2FE042007F0E7FE0228FAD168460AF0FCFE03B05DF804FB00BFDD
:204880000022412300B583B068468DE80C000AF09BFE012007F0D2FE012803D001210320BF
:2048A00007F0A4FE68460AF0E3FE03B05DF804FB0022412300B583B068468DE80C000AF038
:2048C00083FE012007F0BAFE012803D0044B986B07F06EFC68460AF0CBFE03B05DF804FB60
:2048E0004800001010B54123002482B06846019300940AF069FE0320214607F077FE012093
:2049000007F09CFE18B1044B986B07F051FC68460AF0AEFE02B010BD4800001008B50AF0C5
:20492000E7FE30B1044B5B88022B14BF0220012008BD022008BD00BF2411002030B583B064
:204940000AF0D6FE40B901A912480AF0D9FE01280AD0002003B030BD0E4C6388022B08BFBF
:204960000120F0D103B030BDFFF7AEF96FF03F05084C2D1A03E0FFF7A7F9C54208D5608895
:204980000228F8D1A0F10200B0FA80F04009E9E76088F7E72411002070B5054607F01AFEC4
:2049A00004462DB1124A134B12681A608CB170BD0F4B00211E6800230E4D16F180402A68DF
:2049C00041F10001994208BF904206D32E60002CEDD1BDE8704007F001BEFFF775F9064A20
:2049E000064913680860013313602E60EFE700BF04300440B4110020B8110020B011002094
:204A000030B589B002A840F6020218210BF0BCF8164B9DF81A201B68012519799DF81B4051
:204A200061F3050211468DF81A205879104A60F387118DF81A109B7902A863F3470401A937
:204A40008DF81B408DF8165007920AF059FEA84202D0002009B030BD02A80AF09BFE401B87
:204A6000B0FA80F0400909B030BD00BFA00500207405002008B5FFF7C3FF012801D0002081
:204A800008BDFFF75BFFC0B208BD00BFF8B50E4D00200E4F2C680E4E06E02379022B06D011
:204AA00024682B689C4209D02379032BF5D13B782BB124682B6801209C42F5D1F8BD3046F2
:204AC00001F0DCFE0120EBE72C140020C24500204007002008B5B4290A46014628BFB4223C
:204AE00002480DF0EDFE002008BD00BF3A14002010B582B00BF042F804460AF0F9FD08B94B
:204B000002B010BD01A908480AF0FAFD0128F7D1638803F44063002BF2D1638803F4406342
:204B2000002BF5D0ECE700BF010001040B2807D00C2801D001207047042A10D0022070471F
:204B4000082AFBD10029F9D0084A4B1E073112F8010903F8010F8B42F9D1002070470029BC
:204B6000ECD0034B00201B680B60704753110020AC11002010B542F20343002484B002A8C4
:204B800001A902940394ADF808300AF0B9FD20B19DF90A30803302D0204604B010BD9DF80F
:204BA0000C0000F00C00A0F10400B0FA80F0400904B010BD10B582B00AF09AFD20B3144CB9
:204BC0006388022B03D01FE0FFF7D4FF18B10AF08FFD0028F8D101A90E480AF091FD02E078
:204BE0006088022804D10AF083FD0028F8D1608842F20243984207D042F20743C01AB0FA4F
:204C000080F0400902B010BD012002B010BD00BF241100200100010430B585B00AF068FD29
:204C2000B8B10D4B5B88022B13D1002442F2034501A902A802940394ADF808500AF060FD4A
:204C400038B19DF80A305B06F2D09DF80C0005B030BDFF2005B030BD241100200B2801D01C
:204C600001207047082A01D0022070470029FBD00C4A08B501F1080313F8010D8B4202F89C
:204C8000010BF9D10AF034FD50B1074B5B88022B05D1FFF78FFFFFF751FE032008BD002009
:204CA00008BD00BF4C1100202411002008B50AF0C1FF012814D00AF01BFD88B1094B5B8898
:204CC000022B0DD10AF014FD30B9FFF7A5FFFF2806D0C0F3801008BDFFF74CFF0028F4D009
:204CE000002008BD2411002008B502E0FFF742FF18B10AF0FDFC0028F8D1FFF75BFF0AF0AD
:204D00002DFEFFF7EFFD00220D4B0E4819794280022912D00C4B1A79022A04BF00221A71CF
:204D20000A4B1A79022A04BF00221A71084B1A79022A04BF00221A7108BD1A71EAE700BF8D
:204D4000EC110020241100207C1200200C1300209C13002008B50AF06DFF012801D0FFF712
:204D6000C3FF012008BD00BFF8B50AF063FF012830D0FFF785FD0AF0BBFC38BB01258824AC
:204D80001D4A1E4856791E491E4B65F3830690F805E04F7956715E7965F3830E65F3830728
:204DA00065F38306106080F805E00160C480D480CC804F710B601A60DC805E71FFF778FDC5
:204DC0000AF064FEA84207D00020F8BD0E4B5B88022BD3D10120F8BD0C4B1878003018BF10
:204DE00001200AF071FEFFF70BFE0128ECD1BDE8F840FFF7A3BD00BFEC1100207C12002087
:204E00000C1300209C13002024110020C245002070B584B0072800F2B780DFE800F0202957
:204E2000343E416B7004594C21770AF061FC00282FD06388022B2CD1FFF7BCFE012814BF64
:204E4000032400240AF030FE0020FFF7A5FDFFF775FD012800D00324204604B070BD01292E
:204E600000F08680002979D00224204604B070BDA1F10B030F2BF7D8444CC9B2A37B8B42BE
:204E800007D0A173D1E7414C61860AF031FC0028CFD10024204604B070BD3C4C2186C4E7C7
:204EA00031F00702E0D1394C3948237EC1F3400561F30003DBB243F00203067865F3820300
:204EC000657EC1F3800103F0870362F3C71362F3C7158E42657623760170A6D1228B2D4B8C
:204EE00003A918465A800AF00BFC002814BF00240324B1E731F00103B6D1CCB2ACE701F140
:204F000015031A2BB0D86FF014030C24224A01E052F83430994231DD14F1FF34F8D20AF026
:204F2000E7FB0028B5D04FF0000210251A4B02A903EBC40423796679A07903F03F0360F38A
:204F4000470266F3871303A88DF80E308DF80F20ADF80C5000240AF0D3FB7DE701910AF016
:204F600069FE012895D0FFF7BFFE01990C4673E7FFF7FAFE01287FF46EAF8AE7064B074A89
:204F800003EBC4031360CAE7012465E724110020C2450020A4110020AC350100A0050020CF
:204FA00081B130B50C4683B0102800F28480DFE800F05C57524D6C69474128221D8282193D
:204FC00015100B0002207047052300200B6003B030BD6FF0140300200B60F8E71A23002038
:204FE0000B60F4E70B2300200B60F0E7474B00201B780B60EBE7464B00201B785BB20B609D
:20500000E5E70AF075FB002859D0424B5B88022B55D1002240F20343694601A80192ADF81C
:2050200004300AF06DFB01286DD06FF07F0303202360CCE7374B002093F91C300B60C6E7A8
:20504000354B00201B681B680B60C0E7314B00201B8E0B60BBE72F4B00205B8E0B60B6E7BB
:205060002C4B00209B7B0B60B1E70AF041FB30B1284B5888A0F10200B0FA80F040092060A0
:205080000020A4E700200860A1E70023214A0B60137E03F001030B60127E520744BF43F04A
:2050A00002030B601D4B1B783BB10B68002043F004030B608BE7012089E7002087E7FFF7DA
:2050C00053FE0128B1D1002240F20343694601A80192ADF804300AF013FB01280CD00AF06F
:2050E000A9FD0128A1D06FF07F05FFF7FDFD25608035E2D103206AE79DF902500AF09AFDC3
:205100000128F2D1F3E79DF90250F0E7C0450020C145002024110020A0050020C24500207E
:2051200070B588B006460AF0E3FA002848D03A4B5B88022B08BF002542D1FEF7C5FD6FF005
:205140001F04241A07E0FFF715FD012840D1FEF7BBFDC4423ED50AF0CBFA0028F3D102A8AA
:2051600042F6014218210AF00FFD00222B4B2C4CF6B28DF817602178069304929DF8143020
:20518000891A18BF012162F3030301208DF814300AF0D4FC02A801A90AF0B2FAF8B1207829
:2051A00000E070B3BDF80A3003F44063002BF8D0BDF80A40A4B2B4F5105418BF012410E022
:2051C000FFF7D2FD01281AD00124204608B070BD0028C4D0C5B90224204608B070BD207844
:2051E0000124003018BF01200AF0BCFC002DECD00AF020FD0128E8D0FFF776FDE5E705464F
:205200009BE7FFF755F9CAE70AF014FD0128E2D0FFF76AFDDFE700BF241100203A1400208C
:20522000C245002010B50C46B42C2246014628BFB42204480DF044FB2046BDE81040FFF70B
:205240006FBF00BF3A14002010B50AF0F3FC012825D00AF04DFAB8B11B4B5B88022B03D034
:2052600012E0FFF787FC18B10AF042FA0028F8D1FFF7D2FCFF2812D000F0030010F1FF34DF
:2052800018BF0124204610BDFFF76EFD0128044608D00AF0CFFC012801D0FFF725FD012437
:2052A000204610BDFFF7B8FCFF2805D000F0030414F1FF3418BF01240AF0BCFC0128EFD050
:2052C000FFF712FD204610BD241100202DE9F843494D80460F462E680AF00AFA30B1474B38
:2052E0005B88022B02D10020FFF756FBFEF7ECFC434C241A03E0FEF7E7FCC44208D5337970
:20530000022BF8D0032B06D000242046BDE8F8833379032BF8D12E68337A032B07D996F868
:2053200008905FFA89F9A9F10804BC4207DD00243368347234712B602046BDE8F88309F15D
:2053400003094046224606F109010DF0B9FA16F809302C4F5BB23B7016F809302644D6F8A9
:205360000D80294A294E03F07F03B8F1404F3370D2F800900BD9FEF7A7FC254B1B68C3F1E9
:205380007E4303F57203C34248BF09F1FF396FF4BF724FF0FF330020DFF880E0DEF800E08F
:2053A000B2EB0E0263EBEE7312EB080243F10003801849EB0301090241EA106143F6095248
:2053C000002300020DF074F8124B134A1B78106033B100222B6819681A7229601A7194E74D
:2053E0003978042049B289B207F000FE3178032007F0FCFDEDE700BF3414002024110020A1
:20540000FAFEFFFFC1450020B8110020C0450020B0110020C2450020AC110020A42B00208E
:2054200010B50AF065F978B10E4B5B88022B0BD10020FFF7B1FABDE8104000230A4A4FF471
:2054400087310A4800F04ABFFFF78EFC0128F2D10020FFF7A1FA0AF0EDFB0128EBD0FFF770
:2054600043FCE8E72411002021540000BC1100202DE9F0470025354F3548FFF749F90AF0C2
:20548000E3FA3846902229460DF0F4FA9022294630480DF0EFFA902229462F482F4C0DF016
:2054A000E9FA902229462E480DF0E4FA2D4E2E4B2946802220461F60376075600DF0DAFA70
:2054C000B9234FF0070A4FF00209FF2101224FF0190C4FF06F0E42F60108A62742F20200AF
:2054E000E373224B84F8199084F818A026616361268B1F4BA4F8008084F80EC084F81BE04D
:2055000027775E801971A176627384F837201880FFF72AFC012803D02C462046BDE8F08722
:20552000044614480AF03EFB2046FFF735FA2B46114A4FF48731114800F0D0FE2946104862
:2055400001F0D4F82046BDE8F08700BFEC110020600500207C1200200C1300202411002069
:205560009C1300202C14002034140020DC110020A4110020A435010021540000BC11002076
:205580004007002008B500F08BF880B208BD00BF00F010B938B50C4D04202B685B69984765
:2055A0002B6804205B6B984701280446F8D12B6840F20140DB699847044B054A1C60136895
:2055C0009B07FCD538BD00BFB80100102820086028200840034B1B68002B14BF0120022089
:2055E000704700BFF0140020F8B503880446002B2ED0B3F5847F05D1184B1B788B4205D04D
:205600000120F8BD002323800320F8BD144D2B6873B1144B144A1B6812685B680220174602
:205620000026984730182B6847F1000198472E600E4B40F201401B689B6A984701210C4B38
:205640000C4A196013689B07FCD50B48FFF766F84FF4847323800120F8BD00BFE708002065
:20566000F0140020CC01001004800240B80100102820086028200840A405002008B5064B83
:2056800004201B685B6B9847012803BF034B1868C0F34000002008BDB80100103C200840C0
:2056A00070B5274B1B68BBB126480023024612F8011B39B90133042BF9D100240025204697
:2056C000294670BD0021204AC15402EBC303D3E900452046294670BDFFF7D0FF00282BD0F0
:2056E0001A4A1B4B12681A420ED11A4A0121134611601A68002AFCD110464FF4807106F0E2
:205700003BFD0122144B1A6006F064FF06460F4A1368DB07FCD5114B114A1B6812685B68B2
:205720000220154600249847241845F10005002EC5D106F053FFC2E7FFF72CFFD0E700BF26
:20574000F0140020F4140020F80800200880024001000080F09F0240A8025042CC010010A8
:205760000480024038B500240D4D0E4A2C6013680D4923F00103096813604B693120984764
:20578000224620464FF4807106F0F6FC0122074B2A6019782246BDE83840054801F042B8D2
:2057A000A80250420C800240B0010010E7080020B805002010B5074C2378802B00D010BD37
:2057C00000F08CFF20700021BDE81040024800F08DBF00BFE7080020B80500200AB9002094
:2057E000704708B508461146FEF7B0FB002008BD0FB400B583B004AB53F8041B04481A469B
:20580000019300F055F803B05DF804EB04B07047C805002038B54368044693428CBF15460B
:2058200003F1FF352A4600680DF04AF894E80C002A445D1B84E82400002038BD0CB430B571
:2058400087B00AAB53F8044B094D029003911A46214604A802AC01930495059400F028F84F
:205860000022029B1A7007B0BDE8304002B0704715580000102970B50C4605460CD90B4E04
:2058800001E0102C0BD92B681022314668689847103C0028F5D070BD08460029FBD022460C
:2058A0002B6868680149BDE870401847303601002DE9F04F834688464FF000098FB001921A
:2058C00098F80030002B00F0E380252B08BF45461DD0444603E0252B00F044812C4663783C
:2058E000651C002BF7D1454500F0D280A5EB080641463246DBF80030DBF8040098470028EA
:2059000040F0B8816378B144002B00F0C1806B7805F10108002B00F0BB800025A3F12002DF
:20592000102A1BD8DFE802F0171A1A141A1A1A1A1A1A1A111A0E1A1A090045F0100518F89C
:20594000013FEBE745F00105F9E745F00605F6E745F00805F3E745F00205F0E7A3F1310207
:20596000082A00F2D580002404EB840403EB440418F8013F303CA3F13002092AF4D92E2B02
:2059800000F0CE804FF0FF326C2B00F0E180682B00F02681782B00F28180DFE813F079006E
:2059A0007F007F007F007F007F007F007F007F007F007F007F007F007F007F007F007F00F7
:2059C0007F007F007F007F007F007F007F007F007F007F007F007F007F007F007F007F00D7
:2059E0007F007F007F007F00AC027F007F007F007F007F007F007F007F007F007F007F0088
:205A00007F007F007F007F007F007F007F007F007F007F007F007F007F007F007F007F0096
:205A2000A9027F007F007F00A602A302A0027F007F007F007F007F007F007F007F007F00D8
:205A40007F007F007F007F007F007F007F009D027F007F007F007F007F007F007F007F0036
:205A60009A027F009702940291028E028B027F0094027F007F007F007F00880285027D008D
:205A80007F007F0082027F007F027F007F00720248460FB0BDE8F08F45F4407505F4E06377
:205AA000B3F5806F08F1010800F0A9805ED9B3F5C06F00F07D81B3F5E06F00F07281B3F5B6
:205AC000A06F7FF4FDAE019A012C136888BF04F1FF3402F104028DF8203098BF0024EB07AC
:205AE000019200F1B18121465846FFF7C3FE002840F0C0800122DBF8003008A9DBF80400EE
:205B000091449847002840F0B580A144A144D7E62A2B00F0F3812E2B4FF000047FF432AF14
:205B200098F8013008F10101A3F13002092A61D8002202EB820203EB420211F8013F303AFF
:205B4000A3F130000928F4D96C2B88467FF41FAF98F801306C2B00F0388108F1010845F0A5
:205B6000600517E745453FF4D2AEBFE6B3F5807F00F08580B3F5407F7FF4A2AE0198C24B74
:205B800015F4804FC14F18BF1F4603460168043301930A460023002900F06B810DF1330EAD
:205BA0007046110941EA03714FEA131C02F00F0663460A46B95D00F8011D52EA0301F0D1E1
:205BC000BEEB000600F05781033678213022232300F8011C00F8022C00F8033CC71E23E08A
:205BE00098F80130682B00F0978108F1010845F04005CFE62A2B00F07A828846C2E60199C7
:205C00000B460F6804330193002F00F06D823E782EB13E4616F8013F002BFBD1F61B002A4A
:205C200002DB964228BF1646B4428CBFA41B0024EA070FD421465846FFF71CFED0B9394657
:205C4000DBF800303246DBF80400984790B9B144A14435E63946DBF800303246DBF8040004
:205C6000984738B921465846B144FFF703FE00283FF44CAF4FF0FF300FB0BDE8F08F002A92
:205C8000B3BF012325F010050292029315F40053039305F0E00300F09F80402B00F0528213
:205CA00000F24181002B00F00082202B40F03482019991F900200431D3170191002A73F1DF
:205CC0000001C0F2FE81CDE904230023069305F4C053B3F5805F00F09A80B3F5C05F00F0A5
:205CE0007581B3F5006F00F0968100260DF1360A029B41F208029E4241F6080303EA05033B
:205D0000C0F03481934200F0FB81002741F60802934206EB070100F0378100231A460293E7
:205D2000039B7BB1069B002B40F03C8105F00603022B00F00382062B5548029B04BF0123EE
:205D400002460293029B0B449C428CBFE41A002415F00103039304D1E90640F1D3812744DC
:205D60001C46029848B11146DBF800300246DBF80400984700287FF47DAF102FB14440F2A9
:205D80006D813D4602E0102D40F26A81DBF8003010224049DBF804009847103D0028F2D0AB
:205DA00068E7019A136804320192C3F8009087E5DBF8003001223849DBF804009847002879
:205DC0007FF458AF09F101097AE598F8023045F0800508F10208DDE5402B00F0AA8100F22D
:205DE000B280002B00F07581202B40F0DF80039A019906920A780023CDE904230B460433AD
:205E0000019305F4C053B3F5805F7FF466AFDDE90423134300F09D810DF1360307939A46D1
:205E2000DDE90423D00840EA4370DE0802F007013346024630310AF8011D52EA0301F1D19C
:205E4000079BA3EB0A0653E7DBF80030012208A9DBF80400984700287FF40CAF21465846E0
:205E600009F10109FFF706FD00287FF403AFA14426E50DF133003023042600F8013C0138CC
:205E8000A3E645F4C85509E6503601006436010088360100403601009436010045F4106563
:205EA000FCE545F48065F9E545F48855F6E545F4E065F3E545F48135F0E545F40075EDE57A
:205EC00045F40245EAE545F42455E7E545F4A065E4E545F4C135E1E545F4B245DEE545F4CD
:205EE000A135DBE545F48445D8E545F44245D5E545F4E135D2E545F4C065CFE5019A08F127
:205F00000108134614680433002C0193B8BF45F0010598F8003032E598F8023045F0200507
:205F200008F1020836E5602B00F0BF80802B40F0F380019B073323F0070303F108020192B7
:205F4000D3E90023BAE6602B00F0C380802B2DD1039B0693019B073323F0070303F1080233
:205F60000192D3E90023CDE90423B0E602999342A1EB06077FF4CAAE002F08BF0127002307
:205F8000F11902931A46CBE6DDE9042313433FF4C4AE754B15F4804F744A18BF1A460223B7
:205FA0000293BDE60123724A0293CBE605F4C053B3F5805F00F0D180B3F5C05F40F0AF8089
:205FC0000023002206930023CDE90423DDE90401684B15F4804F684E024618BF1E460B4603
:205FE000134300F0B6800DF1360307939A4602460B46110941EA03711F0902F00F003B4678
:206000000A46315C0AF8011D52EA0301F1D1079BA3EB0A066CE6DDE9046732463B4613436F
:2060200000F097800DF136039A460793304639460A2200230CF03CFA3032304639460AF8D9
:20604000012D00230A220CF033FA06460F4656EA0703EBD1079BA3EB0A0649E657B13D46F9
:206060002A46DBF800304549DBF80400984700287FF400AE029D32464D445146DBF80030DE
:20608000DBF80400A946984700287FF4F3AD039BB944002B3FF43AAD21465846FFF7EAFB60
:2060A00000287FF4E7ADA1440AE401990B460A6804330193002A4FEAE27373F10001BFF6E4
:2060C00002AE524263EB4303CDE9042301230693FDE5019A13680432194601920022039B6E
:2060E000CDE904120693F2E5254F062697E5019998F802300A680431019108F1020843E489
:2061000001273CE7214658460492FFF7B3FB049A00283FF426AEADE500220023D3E5002376
:20612000002100220693CDE904121E460DF1360ADEE5039A019906920A885CE60123114A30
:206140000293FFE50199B1F900200431D3170191B4E500260DF1360ACAE500230022069327
:206160000023CDE9042352E6783601007C3601008036010050360100643601004036010035
:206180008C3601008436010010B50446006830B1002100F0ABFA54F8040F0028F8D110BD56
:2061A00010B541600446FDF77DFD206010BD00BF10B50446FDF776FD23686168034A0B444F
:2061C000C01A90428CBF0020012010BDFEFFFF7F704700BFF0B5038883B005465BB14A2B9A
:2061E00004D188291BD0012003B0F0BD002303202B8003B0F0BD194800F00AFC044630B1DA
:20620000A168201D00F080F92468002CF8D10122134B1A704A2301202B8003B0F0BD0F4853
:20622000019200F0F5FB04460028F3D0019A031D9A4205D02468231D002CEBD09A42F9D1F1
:206240002146064800F034FC064E6269A369376832600BB1E06998473760DBE7F8140020A4
:20626000C34500208416002010B50024054B06481C7000F0C9FB2146BDE81040034800F0DE
:2062800035BA00BFC3450020F8140020D005002070B504460D48049D0078A261E36165611D
:2062A00030B9A1600A482146BDE8704000F0B2BB084D094B2E68201D2B6000F025F92E60E6
:2062C0002146BDE87040024800F0A4BBC3450020F814002084160020D005002010B5044C51
:2062E00082B024680094FFF7D3FF02B010BD00BF8416002070B5094B04461B783BB1084DF5
:20630000084B2E6804302B6000F008F92E602146BDE87040044800F07DBB00BFC34500203F
:2063200084160020D0050020F814002070B5094B04461B783BB1084D084B2E6804302B6043
:2063400000F0F6F82E602146BDE87040044800F061BB00BFC345002084160020D005002027
:20636000F814002010B50A4B04461B783BB9C36003612146BDE81040064800F099BB04305D
:2063800000F0FCF82146BDE81040024800F090BBC3450020F814002010B50E4C2368B3B1D6
:2063A000FDF748FC23689A6893E812002144091A4AB192E8180023441B1A9268994228BF1E
:2063C0001946002AF5D1044B0844186010BD024A136010BD00150020FC1400202DE9F8434C
:2063E000038805467BB1592B08D1872912D0822920D059232B800120BDE8F88300232B80DB
:206400000320BDE8F883264A0120136059232B80BDE8F883224F39680029EAD0CB689A42EA
:2064200003D026E0CB689A4222D189680029F9D13960DEE74FF00009194FDFF868803C682C
:20644000002CD6D0002604E0A3682646002BD0D01C46204600F064FA0028F5D0224688210A
:20646000E06800F0DFF978B1404600F007FAEBE739608B68002BBCD0D86882420BBF9B6886
:2064800019468B609B68F5E7E060A3682EB1B360C4F80890FFF780FFD1E73B60F8E700BFDC
:2064A00000150020E005002010B50446104800F0E5F91049E3680A684BB142B194420FD0B3
:2064C000134601E09C420BD09B68002BFAD10A4BA2601B680C60E360BDE81040FFF75CBF41
:2064E000054B1B68E360BDE81040FFF755BF00BFE00500200015002084160020014800F09B
:20650000BDB900BFE005002010B5044600F0F4F92046BDE81040FFF7C7BF00BF10B50446B0
:2065200000F0F2F92046BDE81040FFF7BDBF00BF10B5044600F0EEF92046BDE81040FFF7BD
:20654000B3BF00BFC068B0FA80F04009704700BF05C81044704700BF024B1868003018BF9E
:206560000120704700150020024B186808B1024B1868704700150020FC14002010B50F4B80
:2065800004461A68824213D072B19368984208BF134605D043B19A68944201D01346F9E7C5
:2065A000A2689A60FFF7F8FE0023A360E36010BD82681A60FFF7F0FEF6E700BF001500209C
:2065C0002DE9F843DFF89C80254ED8F800503768854208D0002D35D02B4601E0002B33D0F4
:2065E0001B689842FAD168B3837B89460446DBB10023837365B1AC4207D0AB7BDB0704D5E0
:2066000022468721284600F02FF82D68002DF2D1A3683BB14C4505D034600022832104F1B4
:206620000C009847D8F80050AC4214D04DB12B689C420BD02BB11A68944208D01346002BA3
:20664000F9D13760BDE8F883BDE8F8832B4622681A603760F6E723683760C8F80030F1E7C6
:20666000841600208816002070B586687EB1044602200A4BA0731C6004F10C000D46B047C5
:206680000238012804D9832D02D00123A37370BD21462046BDE87040FFF792BF84160020AE
:2066A00070B500250B4A0C4B14681D7084B1012601E0246864B1E37B002BFAD0A673E57339
:2066C000204600228221FFF7CFFF2468002CF2D170BD00BF88160020C7450020024B18789D
:2066E000421C1A70704700BFC545002070B50F4D2C68844206D034B1234600E01BB11B68E4
:206700009842FBD170BD0028FCD003460A4601200021074E1C603468987399811846812145
:206720002B60FFF7A1FF346070BD00BF8816002084160020002370B48A2606480649074A5B
:20674000074D084C03700B6013602E70237070BC704700BFC64500208816002084160020CA
:20676000C5450020C44500202DE9F041234D2B780BB1FFF795FF224E3378BBB12148224FC5
:206780000278013B02EB4201890001327C1802F01F020270A068DBB233707F5CD4F80480DB
:2067A00098B1812F06D0827BD20705D428781844BDE8F0810123837342463946FFF754FFDF
:2067C000337828781844BDE8F081104A146834B9ECE7A37BD9070AD42468002CF0D02B786F
:2067E000002BF6D0FFF75CFFA37BD907F4D5424639462046FFF738FFEEE700BFC745002036
:20680000C6450020C44500200415002088160020024A034B10781B7818447047C64500203A
:20682000C7450020F0B40C4C2378202B11D00B4D5F1C2D780A4E2B4403F01F0303EB4303E1
:206840009B00F518A8606A602770F1540020F0BC70470120F0BC7047C6450020C445002087
:206860000415002038B5837B034CDB07256801D5FFF7FAFE256038BD8416002038B1837B57
:20688000013B012B03D80123014AC37313707047C7450020807B003018BF0120704700BF11
:2068A000FDF70CBA38B5094C049D226822B180E82A002060002038BD024680E82A0008468F
:2068C0002260FDF7FDF9002038BD00BF8C16002010B5084C206858B10022436881682260D4
:2068E0009847236823B1BDE810401868FDF7E8B910BD00BF8C16002010B541600446FDF75E
:2069000099F9206010BD00BF90E80C0013440360704700BF10B50446FDF78CF9206010BD50
