:020000040000FA
:2000000000500020710500000316000005160000071600000716000007160000000000006F
:2000200000000000000000000000000007160000071600000000000007160000071600004C
:200040000716000007160000071600000716000007160000071600000716000007160000B8
:20006000071600000716000007160000071600000716000007160000071600000716000098
:20008000071600000716000007160000071600000716000007160000071600000716000078
:2000A000071600000716000007160000071600000716000007160000071600000716000058
:2000C0000716000007160000024B01221A6000BF704700BF28200860054B1B6803F002034C
:2000E000002B14BF01230023DBB21846704700BF2820084008B501F007FB024B01221A6030
:20010000FEE700BFFC00204308B5094B1B6814331B680420984700BF054B1B6834331B68FF
:20012000042098470346012BF6D100BF08BD00BFB801001000B583B001F0F7F803468DF8DE
:200140000730FFF7E1FF104B1B681C331B684FF4A0609847FFF7B8FF00BFFFF7BDFF034659
:2001600083F00103DBB2002BF7D101F01AFA9DF8073083F00103DBB2002B01D001F0CAF804
:2001800000BF03B05DF804FBB801001084B001900091009B002B02D0054B039301E0054BCB
:2001A0000393039B019A1A6000BF04B0704700BF90200240A020024000B585B0264A02AB12
:2001C0001068186000238DF8043000238DF8053001F0FCF802AB0421184600F095F803469B
:2001E0008DF80F309DF80F3083F00103DBB2002B03D001F0F3F8FF2329E001AB0221184631
:2002000000F0B4F803468DF80F3001F0E7F89DF80F3083F00103DBB2002B01D0FF2316E079
:200220009DF80430EF2B03D09DF80430C22B0BD19DF80530112B09D09DF80530122B05D0BB
:200240009DF80530142B01D0002300E00123184605B05DF804FB00BF981A000008B51121D6
:200260000B4800F0D9F80B4B1B683C331B680E20984701F0B3F801F028F9FFF79DFF034609
:20028000012B0CBF01230023DBB2184608BD00BF00093D00B4010010024B01221A6000BFFD
:2002A000704700BF28200860054B1B6803F00203002B14BF01230023DBB21846704700BFA7
:2002C00028200840014B1846704700BF006CDC0208B50B4B1B6834331B680220984703465A
:2002E000012B01D0002308E0064B1B6803F00103002B01D1002300E00123184608BD00BF25
:20030000B80100107820084000B585B001900091FFF7DEFF034683F00103DBB2002B1BD0F2
:2003200000231DE0104B1B6804331B681A46019B1B7819464FF0804090470B4B1B680C3329
:200340001B6803AA11464FF080409847009B013B0093019B01330193009B002BE2D10123CD
:20036000184605B05DF804FBC401001000B585B001900091FFF7ACFF034683F00103DBB247
:20038000002B21D0002323E0134B1B6808331B6800214FF0804098470346002B01D1002314
:2003A00016E00D4B1B680C331B6803AA11464FF080409847039BDAB2019B1A70009B013BA1
:2003C0000093019B01330193009B002BDCD10123184605B05DF804FBC401001000B583B06B
:2003E000FFF776FF034683F00103DBB2002B0DD100BF084B1B6810331B6801AA11464FF0A0
:20040000804098470346002BF3D100E000BF03B05DF804FBC401001010B586B00390029169
:200420002E4B1B6814331B680220984700BF2B4B1B6834331B68022098470346012BF6D116
:20044000264B1B681C331B684FF480709847FFF723FF00BFFFF728FF034683F00103DBB283
:20046000002BF7D10F214FF0804001F0AFF803214FF0804001F0BAF8194B1B681B681C4630
:20048000FFF720FF014608230193039B0093002300224FF08040A047124B1B6844331B680B
:2004A0001C46029B00934FF0FF33132212214FF08040A0474FF0804001F07AF800BF084B77
:2004C0001B6810331B6805AA11464FF0804098470346002BF3D100BF06B010BDB8010010AC
:2004E000C4010010B401001008B51F4B1B6820331B684FF480709847FFF7CEFE00BFFFF759
:20050000D3FE034683F00103DBB2002BF7D1174B1B6838331B6812209847144B1B681833B9
:200520001B684FF4005112209847104B1B6838331B68132098470D4B1B6818331B684FF4C9
:20054000005113209847094B1B6838331B6811209847064B1B6818331B684FF400511120FC
:20056000984700BF08BD00BFB8010010B401001000B583B000F0B2F8104B0193104B00936C
:2005800007E0009B1A1D0092019A111D019112681A60009B0B4A9342F3D30B480B494FF050
:2005A00000028842B8BF40F8042BFADB00F0C8FE01F028F800BF03B05DF804FB9C1A000079
:2005C0000000002003000020030000200300002000B587B003900291019201F095F8034626
:2005E000002B0CBF012300238DF8173000BF124B1B68002BFBD0019B012B02D0022B05D0C1
:2006000009E0039B029AD2B21A7008E0039B029A92B21A8003E0039B029A1A6000BF064B02
:2006200001221A609DF81730002B01D001F073F800BF07B05DF804FB00800C40024B0022E4
:200640001A6000BF704700BF40100940014B1B6800BF70472C20094082B000BF1B4B1B689E
:20066000002BFBD11A4B1B6823F0005323F0070343F0005343F004030193164B1B6803F0ED
:200680000403002B05D0124A019B43F00103136018E0114B1B6803F00303002B0FD00C4A81
:2006A000019B43F00303136000BF0B4B1B6803F00303032BF9D1064A019B136002E0044ADA
:2006C000019B136000BF02B0704700BF0C00684204400340B03F00500040034000B583B03D
:2006E0002D4B1B680193019BB3F1FF3F01D10023019301F02DF8294B00221A60284B0122A8
:200700001A60284B01221A60FFF7A6FF264B1B68002B02D100F089FF10E0244B1B68002B3D
:2007200005D1019800F06EF800F07FFF06E000F08CFF019800F066F800F077FF1C4B00224F
:200740001A601C4A1B4B1B6823F07F6323F4702343F09C7343F480331360174B1B681B0B87
:2007600003F00303012B0ED1134B1B6823F0407323F440330093104A009B43F400331360DF
:200780000D4A009B136000BF0C4B1B68002BFBD100BF03B05DF804FB1C13005084046042F5
:2007A0005C600C400822044380012843000120438C21084048200340040009400C006842CD
:2007C00082B001900B4A019B9BB213600A4A019B1B0CDBB21360094B01221A6000BF084B8B
:2007E0001B68002BFBD0054B00221A6000BF02B0704700BF3C600C4040600C4044600C40E9
:2008000084088C4310B58AB00390AA4B01221A6000BFA94B1B68002BFBD0A84BC0221A60DE
:20082000A74B1B6803F00203002B08D1A54AA64B1B681B0CDBB263F00F03DBB21370FFF7C5
:20084000FDFEA24B1B680893A14B1B681B0E03F01F03184600F0EBFE0990089B1B170793A6
:20086000099A079B134401330993099B13F10A0F02DA6FF009030993964A099B1BB203F024
:200880001F031BB243F4F8531BB29BB21380924A089BDB0E03F00103002B0CBF012300239E
:2008A000DBB213608D4A089B9B0E03F00103002B0CBF01230023DBB21360089800F032F926
:2008C0000690069A1821864800F09EFE00F088F90690069B9BB20093002340F2FF322C21F4
:2008E0007F4800F0B4FE00F08FF90690069A1C217B4800F089FE00F093F90690069A142183
:20090000774800F081FE00F0ABF90690069A1021734800F079FE039800F0C2F90690069A10
:200920000C216F4800F070FE039800F039FA06906C4A069BDBB25B00DBB243F02003DBB272
:200940001370039800F040FA0690664A069BDBB243F01003DBB21370039800F049FA069021
:20096000069A28215E4800F04FFE039800F004FA06905D4A069BDBB25B00DBB243F0600339
:20098000DBB21370039800F08BFA0690574A069BDBB2DB00DBB263F07F03DBB213700398EA
:2009A00000F092FA0690524A069B9BB29B009BB26FEA83536FEA93539BB21380039800F0DA
:2009C0004BFA0690069A0821454800F01DFE494B44221A70484B88221A7000F02FFA0690E1
:2009E000464A069BDBB243F03003DBB21370089B9B0D03F00303012B0CD0012B02D3022B49
:200A000030D034E00121042000F072FA3C48FFF7D7FE31E0012000F09FFA059005990420BF
:200A200000F066FA00BF042000F096FA0246059B9A42F8D1334B1B680493049B23F07F436A
:200A40001846FFF7BDFE304B1B681B681C46049B1B0E4FF0602207211846A0472B4B4FF4F5
:200A600080621A600321042000F042FA04E00221042000F03DFA00BF254A264B1B68DBB2A5
:200A800003F03F03DBB21370234B47F618021A80FFF7DCFD214B1B680C331B680220984731
:200AA000064B40221A601E4B01221A6000BF0AB010BD00BF101009409402224300600C40EE
:200AC000B03F005056620840AC3F0050B43F0050B81200506E620840000020430800204359
:200AE00000A00C4049A10C404CA10C4041A10C40DCA10C4005A10C4007A10C4008A10C40C9
:200B0000BD378600A83F0050B401001040A00C400BB00C406C13005070B00C40A001001040
:200B20009404604288B001902C4B1B680493049B9B0E03F00F030793049B9B0A9BB2069310
:200B400000230593019B03F40033002B3CD1019B1B041B16059315E0069B5B080693069B25
:200B6000002B0CD14FF6FF730693079B5B080793079B002B03D10123079301230693059BC2
:200B800001330593059B002BE6DB1AE0069B5B0043F001030693069BB3F5803F0ED301232A
:200BA0000693079B5B0043F001030793079B0F2B04D90F2307934FF6FF730693059B013B1D
:200BC0000593059B002BE1DC079B1A04069B13430393039B184608B0704700BF50130050CB
:200BE00082B0084B1B689B08DBB20193054B1B681B0203F44073019A13430193019B184610
:200C000002B070475013005082B0044B1B68C3F30D030193019B184602B070477C13005018
:200C200082B00E4B1B680193019B03F07C430093019B03F47C03009A13430093019B03F409
:200C40007C43009A13430093019B03F0FC03009A13430093009B184602B070477413005008
:200C600082B00E4B1B680193019B03F47C030093019B03F47C43009A13430093019B03F4C5
:200C80007073009A13430093019B03F03F03009A13430093009B184602B070477013005065
:200CA00088B00190314B1B680393039B1B0D03F00F030693039B1B0C03F00F0305932C4B99
:200CC0001B6803F00103002B2AD12A4B1B680293029B1B051B170493069B049A1344049334
:200CE000049B002B01DA00230493049B0F2B01DD0F230493049B0693029B1B041B17049358
:200D0000059B049A13440493049B002B01DA00230493049B0F2B01DD0F230493049B059391
:200D2000069B1A05059B1B0413430793039B03F47F43079A13430793039B03F0F003079A37
:200D400013430793039B03F00F03079A13430793019B212B05D9039B03F08043079A13435E
:200D60000793079B184608B0704700BF78130050B03F0050AC3F005084B0019000230393D8
:200D8000019B1F2B05D9054B1B681B0D03F003030393039B184604B0704700BF98130050E4
:200DA00084B0019001230393019B212B05D9054B1B681B0F03F001030393039B184604B0B4
:200DC000704700BF8C13005084B0019001230393019B212B05D9054B1B685B0F03F0010335
:200DE0000393039B184604B0704700BF8C13005084B0019000230393019B1F2B17D90E4B9B
:200E00001B680293029BDB0E1B0203F440730393029B1B0E9B0003F01C03039A13430393DB
:200E2000029B9B0D03F00303039A13430393039B184604B0704700BF9813005082B0054B48
:200E40001B68DB0C03F003030193019B184602B0704700BF8C13005084B001900E4B0393D6
:200E6000019B1F2B14D90D4B1B680293029B9B0A9B050393029B1B091B0403F47C13039AB4
:200E800013430393029B1B039BB2039A13430393039B184604B0704700803F409813005074
:200EA00084B0019000230393019B212B05D9054B1B68DB0E03F001030393039B184604B0F5
:200EC000704700BF8C13005084B0019000230393019B212B05D9054B1B685B0D03F03F03F9
:200EE0000393039B184604B0704700BF8C13005000B585B003900291039B03F00103002B77
:200F000008D0029B9BB20093002301220021114800F09DFB039B03F00203002B08D0029BFE
:200F20009BB200930123022200210A4800F08FFB039B03F00403002B08D0029B9BB2009384
:200F400002230C220021034800F081FB00BF05B05DF804FB00A00C4000B585B00190019B9B
:200F6000042B09D11D234FF0C0423421094800F09AFB0346039308E01C234FF08052342150
:200F8000044800F090FB03460393039B184605B05DF804FB00A00C4000B587B003900291A8
:200FA000019200F0B1FB0346002B0CBF012300238DF8173000BF124B1B68002BFBD0019B7F
:200FC000012B02D0022B05D009E0039B029AD2B21A7008E0039B029A92B21A8003E0039B5F
:200FE000029A1A6000BF064B01221A609DF81730002B01D000F08FFB00BF07B05DF804FB12
:2010000000800C4000B585B00190009100F07CFB0346002B0CBF012300238DF80B3000BF8C
:20102000124B1B68002BFBD0009B012B02D0022B05D009E0019B1B78DBB2039308E0019B80
:201040001B889BB2039303E0019B1B68039300BF064B01221A609DF80B30002B01D000F009
:201060005AFB039B184605B05DF804FB00800C4000B585B00190084B1B6814331B68039399
:20108000039B019898470290044B00221A60029B184605B05DF804FBA801001084046042D6
:2010A00000B587B0039002910192094B1B6818331B680593059B019A02990398984704906A
:2010C000044B00221A60049B184607B05DF804FBA801001084046042024B1B681B0F1846E2
:2010E000704700BF1813005082B0064B1B68DBB20193019B7F2B01D900230193019B184607
:2011000002B07047A010005082B0FF238DF80730114B1B681B0B9BB20093009B4BF69A12E9
:20112000934203D100238DF8073010E0009B4BF6BE12934203D101238DF8073007E0009B80
:201140004BF62032934202D102238DF807309DF90730184602B070471813005000B585B07A
:20116000FF238DF80F30FFF7B7FF0290FFF7BCFF0190FFF7C9FF0346012B2FD0022B3FD09B
:20118000002B00D049E0029B013B072B44D801A252F823F0B511000019120000BD11000045
:2011A000191200001912000019120000C5110000CD1100000A238DF80F300EE014238DF85F
:2011C0000F300AE015238DF80F3006E0019BDBB21633DBB28DF80F3000BF1DE0029B002BBD
:2011E00002D0022B04D018E00A238DF80F3006E0019BDBB21433DBB28DF80F3000BF0CE0E1
:20120000029B002B00D008E0019BDBB20A33DBB28DF80F3000BF00E000BF9DF90F30184606
:2012200005B05DF804FB00BF00B585B0034600918DF807309DF80730002B06D09DF80730CD
:20124000013B154AD35C039301E019230393039B1B030393FFF702F803460293029B002B93
:2012600004D100F053F94FF0FF3311E0009A1021039800F052F903460293029B002B04D1DF
:2012800000F044F94FF0FF3302E000F03FF90023184605B05DF804FB0000002000B585B012
:2012A00003468DF807309DF80730002B06D09DF80730013B164AD35C039301E0192303937C
:2012C000039B1B03039300238DF80B3016E000BF9DF80B301B031A46039B1A449DF80B300A
:2012E00002331B031946104600F069FB0346002BEED19DF80B3001338DF80B309DF80B30CB
:20130000182BE4D90023184605B05DF804FB00BF0000002008B500F0FEF90346002B14BF79
:2013200001230023DBB2184608BD08B500F0ECF90346002B14BF01230023DBB2184608BDE6
:2013400000B58BB0FEF7F6FE05AB184600F06FFA05AB184600F079FA00F0F9FA03468DF82B
:20136000273000BF01AA9DF8273011461846FFF75BFF0346002BF5D105AB184600F0BCFACD
:201380000346002B16D09DF82730002B0DD0BDF81020BDF820309A4207D99DF8273018460F
:2013A000FFF77CFFFEF7A6FE0BE04FF4005000F05EFB06E09DF827301846FFF76FFFFEF7D3
:2013C00099FE002318460BB05DF804FB08B500214FF48040FEF7DAFE00BF08BD08B50121D5
:2013E0004FF48040FEF7D2FE00BF08BD00B583B005238DF80430FFF7E9FFFEF7EFFF01AB6B
:2014000001211846FEF780FF03468DF807309DF8073083F00103DBB2002B03D0FFF7DEFF32
:2014200000231CE00DF1030301211846FEF79EFF03468DF807309DF8073083F00103DBB2A2
:20144000002B03D0FFF7CAFF002308E09DF8033003F00103002BE5D1FFF7C0FF01231846ED
:2014600003B05DF804FB00B583B0FFF7BFFF034683F00103DBB2002B21D1B9238DF80630C8
:20148000FFF7A4FF0DF1060301211846FEF73CFFFFF7A4FF00238DF8073009E0FEF78CFE1C
:2014A0000346002B0DD09DF8073001338DF807309DF80730092BF1D9FFF790FF02E000BF2F
:2014C00000E000BF03B05DF804FB00B583B0AB238DF80630FFF77AFF0DF1060301211846FF
:2014E000FEF712FF03468DF807309DF80730002B04D0FFF77BFF03468DF80730FFF76EFF3E
:201500009DF80730184603B05DF804FB08B5FFF7AAFFFEF7E9FF00BF08BD00B587B003905E
:2015200002910192FFF762FF03468DF817309DF8173083F00103DBB2002B01D000232CE00E
:2015400003238DF81030039B1B0CDBB28DF81130039B1B0ADBB28DF81230039BDBB28DF8C1
:201560001330FFF733FF04AB04211846FEF7CCFE034683F00103DBB2002B03D0FFF72EFFA1
:2015800000230AE002990198FEF7F0FE03468DF81730FFF723FF9DF81730184607B05DF8B4
:2015A00004FB08B5FEF75AFEFFF7B0FF00BF08BD82B00190019B04331A46019B04331B68AD
:2015C00043F00203136000BF02B0704782B001900091019B14331946019B14331A68009BA2
:2015E000DB4313400B6000BF02B0704782B001900091019B20331A46009B136000BF02B0C5
:201600007047FEE7FEE7FEE700B585B0039002910192039A029B1344042201991846FEF71D
:20162000D7FF00BF05B05DF804FB00BF704784B00190019B0393039B152B02DD039B203BE9
:201640000393039B184604B0704700BF704700B587B00390029101920093029B5A00039B4A
:20166000134403F500730593009B0F2B08D9009B103B0093059B04330593019B1B0C01931B
:20168000BDF82020009B02FA03F30493019B1A04049B1343042219460598FFF77DFC00BF32
:2016A00007B05DF804FB00B587B00390029101920093039A029B13440593009B0F2B08D908
:2016C000009B103B0093059B02330593019B1B0C019302210598FFF795FC0346ADF8123056
:2016E000019B9AB2BDF812301340ADF81230BDF81220009B42FA03F3ADF81230BDF812303F
:20170000184607B05DF804FBEFF3108072B670471C4623461846EFF3108062B670471C4643
:201720002346184608B5FFF7EFFC0346002B0CBF01230023DBB2184608BD08B5FFF70EFD50
:201740000346152BCCBF01230023DBB2184608BD08B5FFF7E7FF034683F00103DBB2002B6D
:2017600007D1FFF7EAFF034683F00103DBB2002B00D0FEE700BF08BD86B003900291019212
:20178000029B059307E0039B5A1C0392059A511C059112781A70019B5A1E0192002BF2D139
:2017A00000BF06B0704784B003460A46ADF8063013468DF8053041F22103ADF80C300023E7
:2017C0008DF80F302AE0BDF906309BB2DB0BDBB28DF80B30BDF806305B00ADF806309DF918
:2017E0000530002B05DABDF8063043F00103ADF806309DF80B30002B06D0BDF80620BDF84C
:201800000C305340ADF806309DF80F3001338DF80F309DF805305B008DF805309DF80F309F
:20182000072BD0D9BDF80630184604B0704700B583B0019010224FF400510198FFF79CFFB0
:201840000023184603B05DF804FB00B589B001904FF404530793019B5A68079B134404935F
:201860000023ADF81A301EE003AB042207991846FFF782FF002305930FE003AA059B1344C1
:201880001A78BDF81A3011461846FFF78CFF0346ADF81A30059B01330593059B032BECDD46
:2018A000079B04330793079A049B9A42DCD3BDF81A3000211846FFF776FF0346ADF81A30C9
:2018C000BDF81A3000211846FFF76DFF0346ADF81A30019BBDF81A205A8000BF10224FF457
:2018E00000510198FFF7DCFB0346002BF6D10023184609B05DF804FB86B0019001238DF8F8
:201900001730019B04931023039309E0049B5A1C04921B78FF2B03D000238DF8173004E08D
:20192000039B5A1E0392002BF0D19DF81730002B01D0002308E0019B1A88019B5B889A4294
:2019400001D1012300E00023184606B0704700B589B0002307930023ADF81A30012305934A
:2019600025E000BF059BDBB201AA11461846FFF75BFC0346002BF5D101AB1846FFF7BCFFD4
:20198000034683F00103DBB2002B0CD1BDF81030BDF81A209A4207D2059B0793BDF810302A
:2019A000ADF81A3000E000BF059B01330593059B032BD6DD079B184609B05DF804FB00B5EA
:2019C000ADF5805D85B004AB0C3B186004AB103B196000BF04AB103B1868FFF749FB0346B6
:2019E000002BF7D1FEF73AFC03460DF5805202F10C0213600DF5805303F10C031B68002BB2
:201A000004D1FFF783FD4FF0FF332AE004AA043A04AB0C3B4FF480511868FFF77EFD0346D0
:201A20000DF5805202F10C0213600DF5805303F10C031B68002B04D1FFF768FD4FF0FF3337
:201A40000FE0FFF763FD00BF04AB103B04A804384FF480521968FFF723FB0346002BF3D1BE
:201A6000002318460DF5805D05B05DF804FB82B00190019B002B03D0019B03F58073019385
:1F1A8000019B04330193019B186840F00100004700BF02B07047000090FFFF00324B64B5
:020000040001F9
:20FFA80000008001100082FFFDFF58003AFFBFF3FFFFFFFFFFFFFFFFFFFFFFFFFFFFFFFFF8
:20FFC800FFFFFFFFFFFFFFFFFFFFFFFFFFFFFFFFFFFFFFC5FFFFFFFFC5FFFFFFC5C5C5FF5B
:18FFE800C5C5C5FF00000000FFFFFFFFFFFFFFFFFFFFFFFFFFFFFFFFC3
:040000050000057181
:00000001FF
